{"abi":[{"type":"constructor","inputs":[{"name":"_feeCollector","type":"address","internalType":"address"},{"name":"_reputationRegistry","type":"address","internalType":"address"},{"name":"_arbitrator","type":"address","internalType":"address"},{"name":"_umaEscalationManager","type":"address","internalType":"address"},{"name":"_optimisticOracle","type":"address","internalType":"address"}],"stateMutability":"nonpayable"},{"type":"function","name":"AUTO_RELEASE_WINDOW","inputs":[],"outputs":[{"name":"","type":"uint256","internalType":"uint256"}],"stateMutability":"view"},{"type":"function","name":"MIN_DEADLINE","inputs":[],"outputs":[{"name":"","type":"uint256","internalType":"uint256"}],"stateMutability":"view"},{"type":"function","name":"approveDeliverable","inputs":[{"name":"bountyId","type":"uint256","internalType":"uint256"}],"outputs":[],"stateMutability":"nonpayable"},{"type":"function","name":"arbitrator","inputs":[],"outputs":[{"name":"","type":"address","internalType":"address"}],"stateMutability":"view"},{"type":"function","name":"assignWorker","inputs":[{"name":"bountyId","type":"uint256","internalType":"uint256"},{"name":"bidIndex","type":"uint256","internalType":"uint256"}],"outputs":[],"stateMutability":"nonpayable"},{"type":"function","name":"autoReleasePayment","inputs":[{"name":"bountyId","type":"uint256","internalType":"uint256"}],"outputs":[],"stateMutability":"nonpayable"},{"type":"function","name":"bounties","inputs":[{"name":"","type":"uint256","internalType":"uint256"}],"outputs":[{"name":"client","type":"address","internalType":"address"},{"name":"paymentToken","type":"address","internalType":"address"},{"name":"escrowAmount","type":"uint256","internalType":"uint256"},{"name":"createdAt","type":"uint256","internalType":"uint256"},{"name":"deadline","type":"uint256","internalType":"uint256"},{"name":"requirementsURI","type":"string","internalType":"string"},{"name":"status","type":"uint8","internalType":"enum BountyEscrow.BountyStatus"},{"name":"assignedWorker","type":"address","internalType":"address"},{"name":"assignedBidAmount","type":"uint256","internalType":"uint256"},{"name":"submittedAt","type":"uint256","internalType":"uint256"},{"name":"deliverableURI","type":"string","internalType":"string"},{"name":"useUMAArbitration","type":"bool","internalType":"bool"}],"stateMutability":"view"},{"type":"function","name":"canAutoRelease","inputs":[{"name":"bountyId","type":"uint256","internalType":"uint256"}],"outputs":[{"name":"canRelease","type":"bool","internalType":"bool"}],"stateMutability":"view"},{"type":"function","name":"cancelBounty","inputs":[{"name":"bountyId","type":"uint256","internalType":"uint256"}],"outputs":[],"stateMutability":"nonpayable"},{"type":"function","name":"createBounty","inputs":[{"name":"paymentToken","type":"address","internalType":"address"},{"name":"escrowAmount","type":"uint256","internalType":"uint256"},{"name":"deadline","type":"uint256","internalType":"uint256"},{"name":"requirementsURI","type":"string","internalType":"string"},{"name":"useUMAArbitration","type":"bool","internalType":"bool"}],"outputs":[{"name":"bountyId","type":"uint256","internalType":"uint256"}],"stateMutability":"nonpayable"},{"type":"function","name":"disputeCases","inputs":[{"name":"","type":"uint256","internalType":"uint256"}],"outputs":[{"name":"","type":"bytes32","internalType":"bytes32"}],"stateMutability":"view"},{"type":"function","name":"disputeDeliverable","inputs":[{"name":"bountyId","type":"uint256","internalType":"uint256"},{"name":"reason","type":"string","internalType":"string"},{"name":"evidenceURI","type":"string","internalType":"string"}],"outputs":[],"stateMutability":"nonpayable"},{"type":"function","name":"disputeDeliverableWithUMA","inputs":[{"name":"bountyId","type":"uint256","internalType":"uint256"},{"name":"claim","type":"string","internalType":"string"},{"name":"evidenceURI","type":"string","internalType":"string"},{"name":"bond","type":"uint256","internalType":"uint256"}],"outputs":[],"stateMutability":"nonpayable"},{"type":"function","name":"feeCollector","inputs":[],"outputs":[{"name":"","type":"address","internalType":"address"}],"stateMutability":"view"},{"type":"function","name":"getActiveBids","inputs":[{"name":"bountyId","type":"uint256","internalType":"uint256"}],"outputs":[{"name":"activeBids","type":"tuple[]","internalType":"struct BountyEscrow.Bid[]","components":[{"name":"bidder","type":"address","internalType":"address"},{"name":"amount","type":"uint256","internalType":"uint256"},{"name":"proposalURI","type":"string","internalType":"string"},{"name":"bidTime","type":"uint256","internalType":"uint256"},{"name":"withdrawn","type":"bool","internalType":"bool"}]}],"stateMutability":"view"},{"type":"function","name":"getBid","inputs":[{"name":"bountyId","type":"uint256","internalType":"uint256"},{"name":"bidIndex","type":"uint256","internalType":"uint256"}],"outputs":[{"name":"bid","type":"tuple","internalType":"struct BountyEscrow.Bid","components":[{"name":"bidder","type":"address","internalType":"address"},{"name":"amount","type":"uint256","internalType":"uint256"},{"name":"proposalURI","type":"string","internalType":"string"},{"name":"bidTime","type":"uint256","internalType":"uint256"},{"name":"withdrawn","type":"bool","internalType":"bool"}]}],"stateMutability":"view"},{"type":"function","name":"getBidCount","inputs":[{"name":"bountyId","type":"uint256","internalType":"uint256"}],"outputs":[{"name":"count","type":"uint256","internalType":"uint256"}],"stateMutability":"view"},{"type":"function","name":"getBounty","inputs":[{"name":"bountyId","type":"uint256","internalType":"uint256"}],"outputs":[{"name":"bounty","type":"tuple","internalType":"struct BountyEscrow.Bounty","components":[{"name":"client","type":"address","internalType":"address"},{"name":"paymentToken","type":"address","internalType":"address"},{"name":"escrowAmount","type":"uint256","internalType":"uint256"},{"name":"createdAt","type":"uint256","internalType":"uint256"},{"name":"deadline","type":"uint256","internalType":"uint256"},{"name":"requirementsURI","type":"string","internalType":"string"},{"name":"status","type":"uint8","internalType":"enum BountyEscrow.BountyStatus"},{"name":"assignedWorker","type":"address","internalType":"address"},{"name":"assignedBidAmount","type":"uint256","internalType":"uint256"},{"name":"submittedAt","type":"uint256","internalType":"uint256"},{"name":"deliverableURI","type":"string","internalType":"string"},{"name":"bids","type":"tuple[]","internalType":"struct BountyEscrow.Bid[]","components":[{"name":"bidder","type":"address","internalType":"address"},{"name":"amount","type":"uint256","internalType":"uint256"},{"name":"proposalURI","type":"string","internalType":"string"},{"name":"bidTime","type":"uint256","internalType":"uint256"},{"name":"withdrawn","type":"bool","internalType":"bool"}]},{"name":"useUMAArbitration","type":"bool","internalType":"bool"}]}],"stateMutability":"view"},{"type":"function","name":"nextBountyId","inputs":[],"outputs":[{"name":"","type":"uint256","internalType":"uint256"}],"stateMutability":"view"},{"type":"function","name":"optimisticOracle","inputs":[],"outputs":[{"name":"","type":"address","internalType":"address"}],"stateMutability":"view"},{"type":"function","name":"owner","inputs":[],"outputs":[{"name":"","type":"address","internalType":"address"}],"stateMutability":"view"},{"type":"function","name":"platformFeeBps","inputs":[],"outputs":[{"name":"","type":"uint256","internalType":"uint256"}],"stateMutability":"view"},{"type":"function","name":"reputationRegistry","inputs":[],"outputs":[{"name":"","type":"address","internalType":"address"}],"stateMutability":"view"},{"type":"function","name":"resolveDispute","inputs":[{"name":"bountyId","type":"uint256","internalType":"uint256"}],"outputs":[],"stateMutability":"nonpayable"},{"type":"function","name":"resolveUMADispute","inputs":[{"name":"bountyId","type":"uint256","internalType":"uint256"}],"outputs":[],"stateMutability":"nonpayable"},{"type":"function","name":"submitBid","inputs":[{"name":"bountyId","type":"uint256","internalType":"uint256"},{"name":"bidAmount","type":"uint256","internalType":"uint256"},{"name":"proposalURI","type":"string","internalType":"string"}],"outputs":[],"stateMutability":"nonpayable"},{"type":"function","name":"submitDeliverable","inputs":[{"name":"bountyId","type":"uint256","internalType":"uint256"},{"name":"deliverableURI","type":"string","internalType":"string"}],"outputs":[],"stateMutability":"nonpayable"},{"type":"function","name":"transferOwnership","inputs":[{"name":"newOwner","type":"address","internalType":"address"}],"outputs":[],"stateMutability":"nonpayable"},{"type":"function","name":"umaAssertionIds","inputs":[{"name":"","type":"uint256","internalType":"uint256"}],"outputs":[{"name":"","type":"bytes32","internalType":"bytes32"}],"stateMutability":"view"},{"type":"function","name":"umaEscalationManager","inputs":[],"outputs":[{"name":"","type":"address","internalType":"address"}],"stateMutability":"view"},{"type":"function","name":"updateArbitrator","inputs":[{"name":"newArbitrator","type":"address","internalType":"address"}],"outputs":[],"stateMutability":"nonpayable"},{"type":"function","name":"updateFeeCollector","inputs":[{"name":"newCollector","type":"address","internalType":"address"}],"outputs":[],"stateMutability":"nonpayable"},{"type":"function","name":"updateOptimisticOracle","inputs":[{"name":"newOracle","type":"address","internalType":"address"}],"outputs":[],"stateMutability":"nonpayable"},{"type":"function","name":"updatePlatformFee","inputs":[{"name":"newFeeBps","type":"uint256","internalType":"uint256"}],"outputs":[],"stateMutability":"nonpayable"},{"type":"function","name":"updateReputationRegistry","inputs":[{"name":"newRegistry","type":"address","internalType":"address"}],"outputs":[],"stateMutability":"nonpayable"},{"type":"function","name":"updateUMAEscalationManager","inputs":[{"name":"newManager","type":"address","internalType":"address"}],"outputs":[],"stateMutability":"nonpayable"},{"type":"function","name":"withdrawBid","inputs":[{"name":"bountyId","type":"uint256","internalType":"uint256"},{"name":"bidIndex","type":"uint256","internalType":"uint256"}],"outputs":[],"stateMutability":"nonpayable"},{"type":"event","name":"ArbitratorUpdated","inputs":[{"name":"oldArbitrator","type":"address","indexed":true,"internalType":"address"},{"name":"newArbitrator","type":"address","indexed":true,"internalType":"address"}],"anonymous":false},{"type":"event","name":"BidSubmitted","inputs":[{"name":"bountyId","type":"uint256","indexed":true,"internalType":"uint256"},{"name":"bidder","type":"address","indexed":true,"internalType":"address"},{"name":"bidAmount","type":"uint256","indexed":false,"internalType":"uint256"},{"name":"proposalURI","type":"string","indexed":false,"internalType":"string"},{"name":"bidIndex","type":"uint256","indexed":false,"internalType":"uint256"}],"anonymous":false},{"type":"event","name":"BidWithdrawn","inputs":[{"name":"bountyId","type":"uint256","indexed":true,"internalType":"uint256"},{"name":"bidIndex","type":"uint256","indexed":true,"internalType":"uint256"},{"name":"bidder","type":"address","indexed":true,"internalType":"address"}],"anonymous":false},{"type":"event","name":"BountyAutoReleased","inputs":[{"name":"bountyId","type":"uint256","indexed":true,"internalType":"uint256"},{"name":"worker","type":"address","indexed":true,"internalType":"address"},{"name":"amount","type":"uint256","indexed":false,"internalType":"uint256"}],"anonymous":false},{"type":"event","name":"BountyCancelled","inputs":[{"name":"bountyId","type":"uint256","indexed":true,"internalType":"uint256"},{"name":"refundAmount","type":"uint256","indexed":false,"internalType":"uint256"}],"anonymous":false},{"type":"event","name":"BountyCompleted","inputs":[{"name":"bountyId","type":"uint256","indexed":true,"internalType":"uint256"},{"name":"worker","type":"address","indexed":true,"internalType":"address"},{"name":"amount","type":"uint256","indexed":false,"internalType":"uint256"}],"anonymous":false},{"type":"event","name":"BountyCreated","inputs":[{"name":"bountyId","type":"uint256","indexed":true,"internalType":"uint256"},{"name":"client","type":"address","indexed":true,"internalType":"address"},{"name":"paymentToken","type":"address","indexed":false,"internalType":"address"},{"name":"escrowAmount","type":"uint256","indexed":false,"internalType":"uint256"},{"name":"deadline","type":"uint256","indexed":false,"internalType":"uint256"},{"name":"requirementsURI","type":"string","indexed":false,"internalType":"string"}],"anonymous":false},{"type":"event","name":"BountyDisputed","inputs":[{"name":"bountyId","type":"uint256","indexed":true,"internalType":"uint256"},{"name":"reason","type":"string","indexed":false,"internalType":"string"},{"name":"caseId","type":"bytes32","indexed":true,"internalType":"bytes32"}],"anonymous":false},{"type":"event","name":"DeliverableSubmitted","inputs":[{"name":"bountyId","type":"uint256","indexed":true,"internalType":"uint256"},{"name":"worker","type":"address","indexed":true,"internalType":"address"},{"name":"deliverableURI","type":"string","indexed":false,"internalType":"string"},{"name":"submittedAt","type":"uint256","indexed":false,"internalType":"uint256"}],"anonymous":false},{"type":"event","name":"DisputeResolved","inputs":[{"name":"bountyId","type":"uint256","indexed":true,"internalType":"uint256"},{"name":"clientAmount","type":"uint256","indexed":false,"internalType":"uint256"},{"name":"workerAmount","type":"uint256","indexed":false,"internalType":"uint256"}],"anonymous":false},{"type":"event","name":"FeeCollectorUpdated","inputs":[{"name":"oldCollector","type":"address","indexed":true,"internalType":"address"},{"name":"newCollector","type":"address","indexed":true,"internalType":"address"}],"anonymous":false},{"type":"event","name":"OptimisticOracleUpdated","inputs":[{"name":"oldOracle","type":"address","indexed":true,"internalType":"address"},{"name":"newOracle","type":"address","indexed":true,"internalType":"address"}],"anonymous":false},{"type":"event","name":"PlatformFeeUpdated","inputs":[{"name":"oldFeeBps","type":"uint256","indexed":false,"internalType":"uint256"},{"name":"newFeeBps","type":"uint256","indexed":false,"internalType":"uint256"}],"anonymous":false},{"type":"event","name":"ReputationRegistryUpdated","inputs":[{"name":"oldRegistry","type":"address","indexed":true,"internalType":"address"},{"name":"newRegistry","type":"address","indexed":true,"internalType":"address"}],"anonymous":false},{"type":"event","name":"UMADisputeCreated","inputs":[{"name":"bountyId","type":"uint256","indexed":true,"internalType":"uint256"},{"name":"assertionId","type":"bytes32","indexed":true,"internalType":"bytes32"},{"name":"claim","type":"string","indexed":false,"internalType":"string"},{"name":"bond","type":"uint256","indexed":false,"internalType":"uint256"}],"anonymous":false},{"type":"event","name":"UMADisputeResolved","inputs":[{"name":"bountyId","type":"uint256","indexed":true,"internalType":"uint256"},{"name":"assertionId","type":"bytes32","indexed":true,"internalType":"bytes32"},{"name":"clientWon","type":"bool","indexed":false,"internalType":"bool"}],"anonymous":false},{"type":"event","name":"UMAEscalationManagerUpdated","inputs":[{"name":"oldManager","type":"address","indexed":true,"internalType":"address"},{"name":"newManager","type":"address","indexed":true,"internalType":"address"}],"anonymous":false},{"type":"event","name":"WorkerAssigned","inputs":[{"name":"bountyId","type":"uint256","indexed":true,"internalType":"uint256"},{"name":"worker","type":"address","indexed":true,"internalType":"address"},{"name":"bidAmount","type":"uint256","indexed":false,"internalType":"uint256"}],"anonymous":false},{"type":"error","name":"AddressEmptyCode","inputs":[{"name":"target","type":"address","internalType":"address"}]},{"type":"error","name":"AddressInsufficientBalance","inputs":[{"name":"account","type":"address","internalType":"address"}]},{"type":"error","name":"AlreadyAssigned","inputs":[]},{"type":"error","name":"AlreadySubmitted","inputs":[]},{"type":"error","name":"AutoReleaseNotReady","inputs":[]},{"type":"error","name":"BidNotWithdrawable","inputs":[]},{"type":"error","name":"BidTooHigh","inputs":[]},{"type":"error","name":"DeadlinePassed","inputs":[]},{"type":"error","name":"FailedInnerCall","inputs":[]},{"type":"error","name":"InvalidAmount","inputs":[]},{"type":"error","name":"InvalidBidIndex","inputs":[]},{"type":"error","name":"InvalidDeadline","inputs":[]},{"type":"error","name":"InvalidStatus","inputs":[]},{"type":"error","name":"NotAssigned","inputs":[]},{"type":"error","name":"ReentrancyGuardReentrantCall","inputs":[]},{"type":"error","name":"SafeERC20FailedOperation","inputs":[{"name":"token","type":"address","internalType":"address"}]},{"type":"error","name":"Unauthorized","inputs":[]},{"type":"error","name":"ZeroAddress","inputs":[]}],"bytecode":{"object":"0x60803461011f57601f61299938819003918201601f19168301916001600160401b038311848410176101245780849260a09460405283398101031261011f576100478161013a565b906100546020820161013a565b6100606040830161013a565b9061007960806100726060860161013a565b940161013a565b6001600081905560025560fa600455936001600160a01b0316801561010e57600680546001600160a01b03199081163317909155600580548216929092179091556003805482166001600160a01b039384161790556007805482169383169390931790925560098054831693821693909317909255600a80549091169290911691909117905560405161284a908161014f8239f35b63d92e233d60e01b60005260046000fd5b600080fd5b634e487b7160e01b600052604160045260246000fd5b51906001600160a01b038216820361011f5756fe6080604052600436101561001257600080fd5b60003560e01c806302f0108f14611f9457806314c60bdd14611cd25780631c8a524914611cb45780631d30f5a114611c405780631fb2c59514611bcc5780632230292214611ba357806322dcd13e14611b855780633e5a8eb014611acf57806345f25e5e146119be578063571136bd14611992578063582c7ffd146119485780635e29172f1461178d57806368731629146113d35780636cc6cde1146113aa57806371f4bdb114611112578063744d3411146110e357806385ae341d146110c65780638da5cb5b1461109d5780639bbd946b14611071578063a573566214610fcc578063a8ca7c5114610fa3578063aa0b598814610f29578063b123e60614610ead578063bb233ce114610d5f578063bb7e4ee114610c2b578063bffc243d14610bb7578063c2b7b86814610a4f578063c415b95c14610a26578063c8db44e3146109fd578063d2c35ce81461097f578063dc2f874414610882578063dd45bf8a14610618578063e0a267e0146105a4578063e5e5dff1146104d5578063ee8c4bbf14610244578063f2fde38b146101d65763fd14fad4146101b357600080fd5b346101d15760003660031901126101d1576020600254604051908152f35b600080fd5b346101d15760203660031901126101d1576101ef6121dc565b600654906001600160a01b0382163303610234576001600160a01b0316908115610223576001600160a01b03191617600655005b63d92e233d60e01b60005260046000fd5b6282b42960e81b60005260046000fd5b346101d15760203660031901126101d15760006101806040516102668161233f565b828152826020820152826040820152826060820152826080820152606060a08201528260c08201528260e08201528261010082015282610120820152606061014082015260606101608201520152600435600052600160205260406000206040516102d08161233f565b81546001600160a01b0390811682526001830154166020820190815260028301546040830190815260038401546060840190815260048501546080850190815292949192906103216005840161237c565b60a08601908152600684015460c0870193919060ff811660078110156104bf57855260e088019060018060a01b039060081c16815260078601549161010089019283526008870154936101208a0194855261037e6009890161237c565b956101408b01968752600a890198895461039781612606565b9a6103a56040519c8d61235b565b818c5260208c019060005260206000206000915b8383106104a157505050506101608c01998a52600b015460ff16996101808c019a15158b526040519c8d809d60208252600160a01b600190039051169060200152600160a01b6001900390511660408d01525160608c01525160808b01525160a08a01525160c089016101a090526101c0890161043591612208565b945160e0890161044491612420565b516001600160a01b0316610100880152516101208701525161014086015251848203601f190161016086015261047a9190612208565b9051838203601f19016101808501526104939190612291565b905115156101a08301520390f35b600560206001926104b18561257d565b8152019201920191906103b9565b634e487b7160e01b600052602160045260246000fd5b346101d15760203660031901126101d1576004356104f161266d565b6000818152600160205260409020546001600160a01b03163303610234578060005260016020526040600020600681019060ff82541660078110156104bf576105935761058c92600282015492600560ff198254161790557f4fe522caf12f0adba1b0532093b34bea60fc859fb838ae075b44bcd15fcde9ff6020604051858152a2600181015490546001600160a01b03908116911661268f565b6001600055005b6307a92f1960e51b60005260046000fd5b346101d15760203660031901126101d1576105bd6121dc565b6006546001600160a01b0316330361023457600380546001600160a01b039283166001600160a01b0319821681179092559091167f9e5e49ec105918e0e6e453fc58b5f7c68a2425e72ba1e5112eadeaf7505a7b2b600080a3005b346101d15760203660031901126101d15760043561063461266d565b80600052600160205260406000206006810160ff81541660078110156104bf576004036105935760ff600b8301541615610593576009546001600160a01b03169182156102235760249284600052600b6020526060604060002054916040519586809263d565a53360e01b82528960048301525afa94851561087657600080958197610826575b50156107e1576106d76127106106d18888612544565b14612631565b600360ff198554161784557fa80d049f4f7a163e2ce66970118bf6b59688118996fca91e299617f07713465560206127106107236007870154998261071c8b8d612524565b049a612524565b04966040519015158152a36003546001600160a01b03166107dc575b60018101546001600160a01b031693806107bf575b505081610762576001600055005b6107949061078061271061077860045486612524565b048094612537565b905460081c6001600160a01b03168461268f565b806107a0575b8061058c565b6005546107b8926001600160a01b039091169061268f565b808061079a565b90546107d591906001600160a01b03168561268f565b8380610754565b61073f565b60405162461bcd60e51b815260206004820152601860248201527f44697370757465206e6f7420796574207265736f6c76656400000000000000006044820152606490fd5b96509094506060863d60601161086e575b816108446060938361235b565b8101031261086b5750610856856125ea565b936040602087015196015194959495876106bb565b80fd5b3d9150610837565b6040513d6000823e3d90fd5b346101d15760203660031901126101d1576004356000526001602052604060002060018060a01b0381541660018060a01b03600183015416916109726002820154916003810154906004810154916108dc6005830161237c565b9261093660068401549460078501549260088601549460ff600b61090260098a0161237c565b98015416996040519c8d9c8d5260208d015260408c015260608b015260808a015261018060a08a0152610180890190612208565b9361094760c0890160ff8316612420565b60081c6001600160a01b031660e0880152610100870152610120860152848203610140860152612208565b9015156101608301520390f35b346101d15760203660031901126101d1576109986121dc565b6006546001600160a01b03163303610234576001600160a01b0316801561022357600580546001600160a01b0319811683179091556001600160a01b03167f5d16ad41baeb009cd23eb8f6c7cde5c2e0cd5acf4a33926ab488875c37c37f38600080a3005b346101d15760003660031901126101d1576003546040516001600160a01b039091168152602090f35b346101d15760003660031901126101d1576005546040516001600160a01b039091168152602090f35b346101d15760203660031901126101d157600435610a6b61266d565b8060005260016020526040600020906006820160ff81541660078110156104bf57600403610593576007546001600160a01b0316928315610223578260005260086020526040806000205460248251809781936301f46b2960e11b835260048301525afa8015610876576000948591610b7a575b50610b1781610af56127106106d181958a612544565b600360ff1986541617855582610b1060078601549889612524565b0496612524565b04927f959dc01840aa516bf9407cffa45326c7b6821c48feff7b91eb0c743c8f460fd660408051878152866020820152a26003546001600160a01b03166107dc5760018101546001600160a01b031693806107bf57505081610762576001600055005b9490506040853d604011610baf575b81610b966040938361235b565b8101031261086b57508351602090940151610b17610adf565b3d9150610b89565b346101d15760203660031901126101d157610bd06121dc565b6006546001600160a01b0316330361023457600780546001600160a01b039283166001600160a01b0319821681179092559091167f0a4eb09e14cf0b6177b79042a04365517d9b189a50ec69eaabc40a6440103c90600080a3005b346101d15760203660031901126101d1576004356000908152600160205260408120600a01805490825b828110610d2b5750610c6683612606565b92610c74604051948561235b565b808452610c83601f1991612606565b0160005b818110610d1457505060009060005b838110610cb75760405160208082528190610cb390820188612291565b0390f35b60ff6004610cc583856124a0565b5001541615610cd7575b600101610c96565b91610d0c600191610cf1610ceb86866124a0565b5061257d565b610cfb828961261d565b52610d06818861261d565b506125f7565b929050610ccf565b602090610d1f612551565b82828801015201610c87565b60ff6004610d3983856124a0565b5001541615610d4b575b600101610c55565b92610d576001916125f7565b939050610d43565b346101d157610d6d366121f2565b610d7561266d565b6000828152600160205260409020546001600160a01b0316330361023457816000526001602052604060002091600683019160ff83541660078110156104bf5761059357600a8401908154811015610e9c57610dd0916124a0565b509160ff600484015416610e8b57600160ff198254161781558254815490610100600160a81b039060081b1690610100600160a81b0319161790556001820154908160078501557f5fe2994d9d20660b52632fe625731861cf20194d147041f8e1f35458f4a21ea26020610e48846002880154612537565b94546040519485526001600160a01b031693a380610e67576001600055005b60018201549154610e84926001600160a01b03918216911661268f565b808061058c565b630c516f8960e41b60005260046000fd5b63621761b360e11b60005260046000fd5b346101d15760203660031901126101d1576004356000526001602052604060002060ff60068201541660078110156104bf576002149081610ef6575b6020826040519015158152f35b6008915001546202a3008101809111610f13574210156020610ee9565b634e487b7160e01b600052601160045260246000fd5b346101d15760203660031901126101d157600654600435906001600160a01b03163303610234576103e88111610f925760407fd347e206f25a89b917fc9482f1a2d294d749baa4dc9bde7fb495ee11fe49164391600454908060045582519182526020820152a1005b63162908e360e11b60005260046000fd5b346101d15760003660031901126101d1576009546040516001600160a01b039091168152602090f35b346101d157610fda366121f2565b610fe261266d565b816000526001602052604060002060ff60068201541660078110156104bf5761059357600a018054821015610e9c578161101b916124a0565b5080546001600160a01b0316330361023457600401805460ff8116610e8b5760ff1916600117905533917fb41c9b05054be45850ccc1da7d90c7b819cff855cfe0d14f16427398b286c9b6600080a46001600055005b346101d15760203660031901126101d157600435600052600b6020526020604060002054604051908152f35b346101d15760003660031901126101d1576006546040516001600160a01b039091168152602090f35b346101d15760003660031901126101d1576020604051610e108152f35b346101d15760203660031901126101d15760043560005260016020526020600a60406000200154604051908152f35b346101d15760a03660031901126101d15761112b6121dc565b6044356024356064356001600160401b0381116101d1576111509036906004016121af565b6084929192359485151586036101d15761116861266d565b6001600160a01b0316908115610223578215610f9257610e104201804211610f13578510611399576002549361119d856125f7565b60025584600052600160205260406000209560018060a01b0333166bffffffffffffffffffffffff60a01b88541617875560018701846bffffffffffffffffffffffff60a01b82541617905584600288015542600388015580600488015560058701976001600160401b03841161138357886112258561121f60209c546122ea565b836124d2565b6000601f86116001146112f357889992600b6112db9a96947fc6a319bb53a305abad82b279e58a5c6676e1951fcb2ff28aea7ec2f49acad65f96946112858a806112a6976000916112e8575b508160011b916000199060031b1c19161790565b90555b6006810160ff198154169055019060ff801983541691151516179055565b6112cf604051928392888452898d8501526040840152608060608401523396608084019161242d565b0390a3309033906126d0565b6001600055604051908152f35b905089013538611271565b8181528a812090601f198716815b81811061136c57508a9b7fc6a319bb53a305abad82b279e58a5c6676e1951fcb2ff28aea7ec2f49acad65f96946112a6946112db9d9997948b600b9510611352575b505060018a811b019055611288565b88013560001960038d901b60f8161c191690558f80611343565b91928d60018192868b013581550194019201611301565b634e487b7160e01b600052604160045260246000fd5b631da7447960e21b60005260046000fd5b346101d15760003660031901126101d1576007546040516001600160a01b039091168152602090f35b346101d15760803660031901126101d1576004356024356001600160401b0381116101d1576114069036906004016121af565b6044929192356001600160401b0381116101d1576114289036906004016121af565b50506064359061143661266d565b6000838152600160205260409020546001600160a01b03163303610234578260005260016020526040600020936006850160ff81541660078110156104bf576002036105935760ff600b870154161561059357600a546001600160a01b031615801561177a575b61022357805460ff191660041781556114b7368484612469565b9560018060a01b0360018201541696604051602081019067517569636b47696760c01b8252466028820152602881526114f160488261235b565b51902097866116e1575b600a54600954604051636457c97960e01b815261012060048201529a6020948c946001600160a01b03948516948694600094869491909216929061154490610124860190612208565b923360248601528060448601526064850152611c20608485015260a48401528c60c48401526b082a6a68aa4a8bea8a4aaa8960a31b60e484015261010483015203925af1968715610876576000976116ac575b506000868152600b602090815260408083208a905560095484549554600790950154915163c48c1c8960e01b8152600481018b90526001600160a01b03968716602482015260089590951c861660448601526064850191909152608484018a905292939092849260a4928492165af180156108765761164d575b506116437f82e5c89babe1c25df87d88276c0c2cf4d5d05d12e15c8b315e497672d3192fb193604051938493846125cd565b0390a36001600055005b6020813d6020116116a4575b816116666020938361235b565b810103126101d1577f82e5c89babe1c25df87d88276c0c2cf4d5d05d12e15c8b315e497672d3192fb19361169c611643926125ea565b509350611611565b3d9150611659565b90966020823d6020116116d9575b816116c76020938361235b565b8101031261086b575051956020611597565b3d91506116ba565b611727916116f1883033856126d0565b600a5460405163095ea7b360e01b81526001600160a01b0390911660048201526024810189905292602090849081906044820190565b03816000865af1801561087657611740575b91506114fb565b6020833d602011611772575b816117596020938361235b565b810103126101d15761176c6020936125ea565b50611739565b3d915061174c565b506009546001600160a01b03161561149d565b346101d15760403660031901126101d1576004356024356001600160401b0381116101d1576117c09036906004016121af565b91906117ca61266d565b60008281526001602052604090206006015460081c6001600160a01b031633036102345781600052600160205260406000206006810160ff81541660078110156104bf5760010361059357805460ff19166002179055600981016001600160401b038511611383576118408561121f83546122ea565b846000601f82116001146118ba57916118968261164395937f1ec04bff6480b4dc381bc7a3610956ee9c98b3fc0f1f024784c032eed378e3e297956000916118af57508160011b916000199060031b1c19161790565b90555b60084291015560405191829133964291846125cd565b90508501358a611271565b82815260208120915086601f198116825b81811061192d5750916116439593917f1ec04bff6480b4dc381bc7a3610956ee9c98b3fc0f1f024784c032eed378e3e297959310611913575b5050600187811b019055611899565b84013560001960038a901b60f8161c191690558780611904565b8784013585556001909401936020938401938a9350016118cb565b346101d157610cb361197e610ceb61195f366121f2565b90611968612551565b506000526001602052600a6040600020016124a0565b604051918291602083526020830190612249565b346101d15760203660031901126101d15760043560005260086020526020604060002054604051908152f35b346101d15760203660031901126101d1576004356119da61266d565b806000526001602052604060002090600682019160ff83541660078110156104bf576002036105935760088101546202a3008101809111610f13574210611abe57602092611a9a91600660ff198354161782556007810154612710611a4160045483612524565b04947f325fb530558e04e04b848431eac23a1cd976cbac629ea385adc532ecccc2f614611a6e8784612537565b945460405193845260081c6001600160a01b0316978893a3600101546001600160a01b0316938461268f565b80611aa6576001600055005b600554610e84926001600160a01b039091169061268f565b630d6ea62d60e31b60005260046000fd5b346101d15760203660031901126101d157600435611aeb61266d565b6000818152600160205260409020546001600160a01b0316330361023457806000526001602052604060002090600682019160ff83541660078110156104bf5760020361059357602092611a9a91600360ff198354161782556007810154612710611b5860045483612524565b04947f285d0f935b4d6592b80efc46cc3d9eb3e93e27fe245f0a6c2b5b9a9d04800ee7611a6e8784612537565b346101d15760003660031901126101d1576020600454604051908152f35b346101d15760003660031901126101d157600a546040516001600160a01b039091168152602090f35b346101d15760203660031901126101d157611be56121dc565b6006546001600160a01b0316330361023457600980546001600160a01b039283166001600160a01b0319821681179092559091167f1fe137b571d8110211f76d2ffde98c8e6495bf5db6b76aaee769170bae2f7fe7600080a3005b346101d15760203660031901126101d157611c596121dc565b6006546001600160a01b0316330361023457600a80546001600160a01b039283166001600160a01b0319821681179092559091167f8d248e6a51f9d2e86f45a0aeb448150a3231815085406efcce02ba26d6a34bdc600080a3005b346101d15760003660031901126101d15760206040516202a3008152f35b346101d15760603660031901126101d1576024356004356044356001600160401b0381116101d157611d089036906004016121af565b9290611d1261266d565b826000526001602052604060002060ff60068201541660078110156104bf576105935760048101544211611f835782158015611f76575b611f6557600a019384549460405190611d6182612324565b33825260208201858152611d76368587612469565b604084019081526060840191428352608085019360008552680100000000000000008b1015611383578a611daf916001820181556124a0565b959095611f4f575185546001600160a01b0319166001600160a01b039190911617855551600185015551805160028501916001600160401b03821161138357611e0282611dfc85546122ea565b856124d2565b602090601f8311600114611eb857937f51e5683022cb385bea737ada171e2d92c8f64b132bd3ffdb15130bbe21a8b8fd99989693611e6484600495611e9a9b9995611e8399600092611ead575b50508160011b916000199060031b1c19161790565b90555b51600384015551151591019060ff801983541691151516179055565b60405193845260606020850152606084019161242d565b9360408201528033940390a36001600055005b015190503880611e4f565b90601f1983169184600052816000209260005b818110611f37575084611e9a9a9894611e8398947f51e5683022cb385bea737ada171e2d92c8f64b132bd3ffdb15130bbe21a8b8fd9e9d9b989460049860019510611f1e575b505050811b019055611e67565b015160001960f88460031b161c191690558f8080611f11565b92936020600181928786015181550195019301611ecb565b634e487b7160e01b600052600060045260246000fd5b63326e033560e21b60005260046000fd5b5060028101548311611d49565b63387b2e5560e11b60005260046000fd5b346101d15760603660031901126101d1576004356024356001600160401b0381116101d157611fc79036906004016121af565b91906044356001600160401b0381116101d157611fe89036906004016121af565b9390611ff261266d565b6000848152600160205260409020546001600160a01b03163303610234578360005260016020526040600020946006860160ff81541660078110156104bf5760020361059357805460ff191660041781556007546000976001600160a01b03919091169182612098575b88887f30139b2a92b23df92fba749cd33c6fd33a6f2f96ca425ab2d5c22da426f2e40e898961164360405192839260208452602084019161242d565b5460079190910154604051635652475360e01b81526004810189905233602482015260089290921c6001600160a01b03166044830152606482015260c06084820152965060209287928391600091839161210c916120fa60c485018b8d61242d565b8481036003190160a48601529161242d565b03925af19384156108765760009461215b575b5060008381526008602052604090208490557f30139b2a92b23df92fba749cd33c6fd33a6f2f96ca425ab2d5c22da426f2e40e8580808061205c565b90936020823d6020116121a7575b816121766020938361235b565b8101031261086b575051927f30139b2a92b23df92fba749cd33c6fd33a6f2f96ca425ab2d5c22da426f2e40e61211f565b3d9150612169565b9181601f840112156101d1578235916001600160401b0383116101d157602083818601950101116101d157565b600435906001600160a01b03821682036101d157565b60409060031901126101d1576004359060243590565b919082519283825260005b848110612234575050826000602080949584010152601f8019910116010190565b80602080928401015182828601015201612213565b9060018060a01b0382511681526020820151602082015260808061227c604085015160a0604086015260a0850190612208565b93606081015160608501520151151591015290565b9080602083519182815201916020808360051b8301019401926000915b8383106122bd57505050505090565b90919293946020806122db600193601f198682030187528951612249565b970193019301919392906122ae565b90600182811c9216801561231a575b602083101461230457565b634e487b7160e01b600052602260045260246000fd5b91607f16916122f9565b60a081019081106001600160401b0382111761138357604052565b6101a081019081106001600160401b0382111761138357604052565b90601f801991011681019081106001600160401b0382111761138357604052565b9060405191826000825492612390846122ea565b80845293600181169081156123fe57506001146123b7575b506123b59250038361235b565b565b90506000929192526020600020906000915b8183106123e25750509060206123b592820101386123a8565b60209193508060019154838589010152019101909184926123c9565b9050602092506123b594915060ff191682840152151560051b820101386123a8565b9060078210156104bf5752565b908060209392818452848401376000828201840152601f01601f1916010190565b6001600160401b03811161138357601f01601f191660200190565b9291926124758261244e565b91612483604051938461235b565b8294818452818301116101d1578281602093846000960137010152565b80548210156124bc576000526005602060002091020190600090565b634e487b7160e01b600052603260045260246000fd5b601f82116124df57505050565b6000526020600020906020601f840160051c8301931061251a575b601f0160051c01905b81811061250e575050565b60008155600101612503565b90915081906124fa565b81810292918115918404141715610f1357565b91908203918211610f1357565b91908201809211610f1357565b6040519061255e82612324565b6000608083828152826020820152606060408201528260608201520152565b9060405161258a81612324565b608060ff6004839560018060a01b038154168552600181015460208601526125b46002820161237c565b6040860152600381015460608601520154161515910152565b9392916020916125e59160408752604087019161242d565b930152565b519081151582036101d157565b6000198114610f135760010190565b6001600160401b0381116113835760051b60200190565b80518210156124bc5760209160051b010190565b1561263857565b60405162461bcd60e51b815260206004820152600d60248201526c125b9d985b1a59081cdc1b1a5d609a1b6044820152606490fd5b60026000541461267e576002600055565b633ee5aeb560e01b60005260046000fd5b60405163a9059cbb60e01b60208201526001600160a01b039290921660248301526044808301939093529181526123b5916126cb60648361235b565b612714565b6040516323b872dd60e01b60208201526001600160a01b0392831660248201529290911660448301526064808301939093529181526123b5916126cb60848361235b565b60008061275e9260018060a01b03169360208151910182865af13d156127ab573d9061273f8261244e565b9161274d604051938461235b565b82523d6000602084013e5b836127b3565b8051908115159182612788575b50506127745750565b635274afe760e01b60005260045260246000fd5b81925090602091810103126101d15760206127a391016125ea565b15388061276b565b606090612758565b906127d957508051156127c857805190602001fd5b630a12f52160e11b60005260046000fd5b8151158061280b575b6127ea575090565b639996b31560e01b60009081526001600160a01b0391909116600452602490fd5b50803b156127e256fea26469706673582212205a3a057474211483b1bfb21e34e822c309cddb61dbf904e6b8fbc3cbcdd055fa64736f6c634300081b0033","linkReferences":{}},"methodIdentifiers":{"AUTO_RELEASE_WINDOW()":"1c8a5249","MIN_DEADLINE()":"85ae341d","approveDeliverable(uint256)":"3e5a8eb0","arbitrator()":"6cc6cde1","assignWorker(uint256,uint256)":"bb233ce1","autoReleasePayment(uint256)":"45f25e5e","bounties(uint256)":"dc2f8744","canAutoRelease(uint256)":"b123e606","cancelBounty(uint256)":"e5e5dff1","createBounty(address,uint256,uint256,string,bool)":"71f4bdb1","disputeCases(uint256)":"571136bd","disputeDeliverable(uint256,string,string)":"02f0108f","disputeDeliverableWithUMA(uint256,string,string,uint256)":"68731629","feeCollector()":"c415b95c","getActiveBids(uint256)":"bb7e4ee1","getBid(uint256,uint256)":"582c7ffd","getBidCount(uint256)":"744d3411","getBounty(uint256)":"ee8c4bbf","nextBountyId()":"fd14fad4","optimisticOracle()":"22302922","owner()":"8da5cb5b","platformFeeBps()":"22dcd13e","reputationRegistry()":"c8db44e3","resolveDispute(uint256)":"c2b7b868","resolveUMADispute(uint256)":"dd45bf8a","submitBid(uint256,uint256,string)":"14c60bdd","submitDeliverable(uint256,string)":"5e29172f","transferOwnership(address)":"f2fde38b","umaAssertionIds(uint256)":"9bbd946b","umaEscalationManager()":"a8ca7c51","updateArbitrator(address)":"bffc243d","updateFeeCollector(address)":"d2c35ce8","updateOptimisticOracle(address)":"1d30f5a1","updatePlatformFee(uint256)":"aa0b5988","updateReputationRegistry(address)":"e0a267e0","updateUMAEscalationManager(address)":"1fb2c595","withdrawBid(uint256,uint256)":"a5735662"},"id":23}