{"abi":[{"type":"constructor","inputs":[{"name":"_verifier","type":"address","internalType":"address"}],"stateMutability":"nonpayable"},{"type":"function","name":"agents","inputs":[{"name":"","type":"bytes32","internalType":"bytes32"}],"outputs":[{"name":"owner","type":"address","internalType":"address"},{"name":"agentType","type":"uint8","internalType":"enum ERC8004Registry.AgentType"},{"name":"status","type":"uint8","internalType":"enum ERC8004Registry.AgentStatus"},{"name":"agentCardURI","type":"string","internalType":"string"},{"name":"registeredAt","type":"uint256","internalType":"uint256"},{"name":"lastUpdated","type":"uint256","internalType":"uint256"},{"name":"verified","type":"bool","internalType":"bool"}],"stateMutability":"view"},{"type":"function","name":"discoverByCapability","inputs":[{"name":"capability","type":"string","internalType":"string"}],"outputs":[{"name":"agentIds","type":"bytes32[]","internalType":"bytes32[]"}],"stateMutability":"view"},{"type":"function","name":"getActiveAgentsByCapability","inputs":[{"name":"capability","type":"string","internalType":"string"}],"outputs":[{"name":"activeAgentIds","type":"bytes32[]","internalType":"bytes32[]"}],"stateMutability":"view"},{"type":"function","name":"getAgent","inputs":[{"name":"agentId","type":"bytes32","internalType":"bytes32"}],"outputs":[{"name":"agent","type":"tuple","internalType":"struct ERC8004Registry.AgentCard","components":[{"name":"owner","type":"address","internalType":"address"},{"name":"agentType","type":"uint8","internalType":"enum ERC8004Registry.AgentType"},{"name":"status","type":"uint8","internalType":"enum ERC8004Registry.AgentStatus"},{"name":"agentCardURI","type":"string","internalType":"string"},{"name":"capabilities","type":"string[]","internalType":"string[]"},{"name":"registeredAt","type":"uint256","internalType":"uint256"},{"name":"lastUpdated","type":"uint256","internalType":"uint256"},{"name":"verified","type":"bool","internalType":"bool"}]}],"stateMutability":"view"},{"type":"function","name":"getAgentByWallet","inputs":[{"name":"wallet","type":"address","internalType":"address"}],"outputs":[{"name":"agentId","type":"bytes32","internalType":"bytes32"}],"stateMutability":"view"},{"type":"function","name":"getAgentCapabilities","inputs":[{"name":"agentId","type":"bytes32","internalType":"bytes32"}],"outputs":[{"name":"capabilities","type":"string[]","internalType":"string[]"}],"stateMutability":"view"},{"type":"function","name":"getVerifiedAgentsByCapability","inputs":[{"name":"capability","type":"string","internalType":"string"}],"outputs":[{"name":"verifiedAgentIds","type":"bytes32[]","internalType":"bytes32[]"}],"stateMutability":"view"},{"type":"function","name":"hasCapability","inputs":[{"name":"agentId","type":"bytes32","internalType":"bytes32"},{"name":"capability","type":"string","internalType":"string"}],"outputs":[{"name":"hasCapability","type":"bool","internalType":"bool"}],"stateMutability":"view"},{"type":"function","name":"owner","inputs":[],"outputs":[{"name":"","type":"address","internalType":"address"}],"stateMutability":"view"},{"type":"function","name":"registerAgent","inputs":[{"name":"agentType","type":"uint8","internalType":"enum ERC8004Registry.AgentType"},{"name":"agentCardURI","type":"string","internalType":"string"},{"name":"capabilities","type":"string[]","internalType":"string[]"}],"outputs":[{"name":"agentId","type":"bytes32","internalType":"bytes32"}],"stateMutability":"payable"},{"type":"function","name":"registrationFee","inputs":[],"outputs":[{"name":"","type":"uint256","internalType":"uint256"}],"stateMutability":"view"},{"type":"function","name":"totalAgents","inputs":[],"outputs":[{"name":"","type":"uint256","internalType":"uint256"}],"stateMutability":"view"},{"type":"function","name":"transferAgent","inputs":[{"name":"agentId","type":"bytes32","internalType":"bytes32"},{"name":"newOwner","type":"address","internalType":"address"}],"outputs":[],"stateMutability":"nonpayable"},{"type":"function","name":"transferOwnership","inputs":[{"name":"newOwner","type":"address","internalType":"address"}],"outputs":[],"stateMutability":"nonpayable"},{"type":"function","name":"updateAgent","inputs":[{"name":"agentId","type":"bytes32","internalType":"bytes32"},{"name":"newAgentCardURI","type":"string","internalType":"string"},{"name":"newCapabilities","type":"string[]","internalType":"string[]"}],"outputs":[],"stateMutability":"nonpayable"},{"type":"function","name":"updateAgentStatus","inputs":[{"name":"agentId","type":"bytes32","internalType":"bytes32"},{"name":"newStatus","type":"uint8","internalType":"enum ERC8004Registry.AgentStatus"}],"outputs":[],"stateMutability":"nonpayable"},{"type":"function","name":"updateRegistrationFee","inputs":[{"name":"newFee","type":"uint256","internalType":"uint256"}],"outputs":[],"stateMutability":"nonpayable"},{"type":"function","name":"updateVerifier","inputs":[{"name":"newVerifier","type":"address","internalType":"address"}],"outputs":[],"stateMutability":"nonpayable"},{"type":"function","name":"verifier","inputs":[],"outputs":[{"name":"","type":"address","internalType":"address"}],"stateMutability":"view"},{"type":"function","name":"verifyAgent","inputs":[{"name":"agentId","type":"bytes32","internalType":"bytes32"}],"outputs":[],"stateMutability":"nonpayable"},{"type":"function","name":"walletToAgent","inputs":[{"name":"","type":"address","internalType":"address"}],"outputs":[{"name":"","type":"bytes32","internalType":"bytes32"}],"stateMutability":"view"},{"type":"function","name":"withdrawFees","inputs":[{"name":"recipient","type":"address","internalType":"address payable"}],"outputs":[],"stateMutability":"nonpayable"},{"type":"event","name":"AgentRegistered","inputs":[{"name":"agentId","type":"bytes32","indexed":true,"internalType":"bytes32"},{"name":"owner","type":"address","indexed":true,"internalType":"address"},{"name":"agentType","type":"uint8","indexed":false,"internalType":"enum ERC8004Registry.AgentType"},{"name":"agentCardURI","type":"string","indexed":false,"internalType":"string"}],"anonymous":false},{"type":"event","name":"AgentStatusChanged","inputs":[{"name":"agentId","type":"bytes32","indexed":true,"internalType":"bytes32"},{"name":"oldStatus","type":"uint8","indexed":false,"internalType":"enum ERC8004Registry.AgentStatus"},{"name":"newStatus","type":"uint8","indexed":false,"internalType":"enum ERC8004Registry.AgentStatus"}],"anonymous":false},{"type":"event","name":"AgentTransferred","inputs":[{"name":"agentId","type":"bytes32","indexed":true,"internalType":"bytes32"},{"name":"oldOwner","type":"address","indexed":true,"internalType":"address"},{"name":"newOwner","type":"address","indexed":true,"internalType":"address"}],"anonymous":false},{"type":"event","name":"AgentUpdated","inputs":[{"name":"agentId","type":"bytes32","indexed":true,"internalType":"bytes32"},{"name":"newAgentCardURI","type":"string","indexed":false,"internalType":"string"},{"name":"newCapabilities","type":"string[]","indexed":false,"internalType":"string[]"}],"anonymous":false},{"type":"event","name":"AgentVerified","inputs":[{"name":"agentId","type":"bytes32","indexed":true,"internalType":"bytes32"},{"name":"verifier","type":"address","indexed":true,"internalType":"address"}],"anonymous":false},{"type":"event","name":"CapabilityAdded","inputs":[{"name":"agentId","type":"bytes32","indexed":true,"internalType":"bytes32"},{"name":"capability","type":"string","indexed":false,"internalType":"string"}],"anonymous":false},{"type":"event","name":"CapabilityRemoved","inputs":[{"name":"agentId","type":"bytes32","indexed":true,"internalType":"bytes32"},{"name":"capability","type":"string","indexed":false,"internalType":"string"}],"anonymous":false},{"type":"event","name":"RegistrationFeeUpdated","inputs":[{"name":"oldFee","type":"uint256","indexed":false,"internalType":"uint256"},{"name":"newFee","type":"uint256","indexed":false,"internalType":"uint256"}],"anonymous":false},{"type":"event","name":"VerifierUpdated","inputs":[{"name":"oldVerifier","type":"address","indexed":true,"internalType":"address"},{"name":"newVerifier","type":"address","indexed":true,"internalType":"address"}],"anonymous":false},{"type":"error","name":"AgentAlreadyExists","inputs":[]},{"type":"error","name":"AgentNotFound","inputs":[]},{"type":"error","name":"EmptyAgentCardURI","inputs":[]},{"type":"error","name":"EmptyCapabilities","inputs":[]},{"type":"error","name":"InsufficientFee","inputs":[]},{"type":"error","name":"InvalidAgentType","inputs":[]},{"type":"error","name":"InvalidSignature","inputs":[]},{"type":"error","name":"InvalidStatus","inputs":[]},{"type":"error","name":"ReentrancyGuardReentrantCall","inputs":[]},{"type":"error","name":"Unauthorized","inputs":[]},{"type":"error","name":"ZeroAddress","inputs":[]}],"bytecode":{"object":"0x608034608d57601f611f2538819003918201601f19168301916001600160401b03831184841017609157808492602094604052833981010312608d57516001600160a01b03811690819003608d5760015f5566038d7ea4c68000600855600680546001600160a01b0319908116331790915560078054909116919091179055604051611e7f90816100a68239f35b5f80fd5b634e487b7160e01b5f52604160045260245ffdfe6080806040526004361015610012575f80fd5b5f3560e01c90816314c44e09146117b857508063164e68de146117065780631f41f83b1461165a5780632b7ac3f3146116325780632e20ee181461158b57806330f324c81461149b578063421b455e1461102e57806359b346e614610f965780637686bfb514610e9f5780637ccd07a514610de657806385f8dd8d1461017c578063881b07b714610c4e5780638da5cb5b14610c2657806395144aea1461065557806397fc007c146105e2578063a6c2af01146103fd578063ab2bd45314610294578063af582c6b14610234578063bec89f41146101d1578063c5053712146101b4578063e16abb171461017c5763f2fde38b1461010e575f80fd5b34610178576020366003190112610178576101276119bf565b600654906001600160a01b038216330361016a576001600160a01b031690811561015b576001600160a01b03191617600655005b63d92e233d60e01b5f5260045ffd5b6282b42960e81b5f5260045ffd5b5f80fd5b34610178576020366003190112610178576001600160a01b0361019d6119bf565b165f526002602052602060405f2054604051908152f35b34610178575f366003190112610178576020600554604051908152f35b34610178576040366003190112610178576024356001600160401b038111610178576102036020913690600401611929565b9190826040519384928337810160048152030190206004355f52602052602060ff60405f2054166040519015158152f35b3461017857602036600319011261017857600654600435906001600160a01b0316330361016a5760407f50b218c5a101ad05d53ab0a964d01da639ee79525ae4b7802ed714249740a8d591600854908060085582519182526020820152a1005b34610178576020366003190112610178576004356001600160401b038111610178576102c66020913690600401611929565b919082604051938492833781016003815203019020604051808260208294549384815201905f5260205f20925f5b8181106103e45750506103099250038261184a565b5f5f5b825181101561035d5761031f8184611c3c565b515f52600160205260ff60405f205460a81c1661033b8161190b565b15610349575b60010161030c565b90610355600191611c50565b919050610341565b5061036790611c72565b905f5f5b82518110156103d25761037e8184611c3c565b515f52600160205260ff60405f205460a81c1661039a8161190b565b156103a8575b60010161036b565b906103ca6001916103b98486611c3c565b516103c48288611c3c565b52611c50565b9190506103a0565b604051806103e08682611986565b0390f35b84548352600194850194869450602090930192016102f4565b34610178576020366003190112610178576004355f60e06040516104208161182e565b828152826020820152826040820152606080820152606060808201528260a08201528260c08201520152805f52600160205260018060a01b0360405f205416156105d3575f52600160205260405f2060405161047b8161182e565b81546001600160a01b0381168252602082019060ff9060a081901c82166104a18161190b565b835260a81c169060408301916104b68161190b565b82526104c46001850161186b565b93606084019485526105576104db60028301611a07565b956080860196875260038301549460a0870195865260ff600560048601549560c08a019687520154169460e088019515158652604051976020895260018060a01b0390511660208901525161052f8161190b565b60408801525161053e8161190b565b60608701525161010060808701526101208601906117d2565b945192601f198587030160a0860152835180875260208701906020808260051b8a01019601915f905b8282106105a757505050508495505160c08501525160e08401525115156101008301520390f35b909192966020806105c56001938d601f199082030186528b516117d2565b990192019201909291610580565b63e93ba22360e01b5f5260045ffd5b34610178576020366003190112610178576105fb6119bf565b6006546001600160a01b0316330361016a57600780546001600160a01b039283166001600160a01b0319821681179092559091167f0243549a92b2412f7a3caf7a2e56d65b8821b91345363faa5f57195384065fcc5f80a3005b6060366003190112610178576004356003811015610178576024356001600160401b0381116101785761068c903690600401611929565b6044929192356001600160401b038111610178576106ae903690600401611956565b92906106b8611cda565b6008543410610c18578215610c09578315610bfa57335f52600260205260405f2054610beb576106e78261190b565b600260ff831611610bdc5760405160208101903360601b825284876034830137610723602060348388810142838201520301808452018261184a565b519020936040516107338161182e565b33815260208101906107448561190b565b848252604081015f815261075936888b611ca4565b60608301908152610769856119f0565b610776604051918261184a565b858152602081018660051b88013681116101785788915b818310610ba057505050608084019081524260a0850181815260c086019182525f60e087018181528d825260016020526040909120965187546001600160a01b0319166001600160a01b03919091161787559651919490939161082591906107f48161190b565b6107fd8161190b565b875460ff60a01b191660a09190911b60ff60a01b161787555161081f8161190b565b86611a5c565b51805160018601916001600160401b038211610b1e5761084f8261084985546117f6565b85611abf565b602090601f8311600114610b3d5761087e92915f9183610b32575b50508160011b915f199060031b1c19161790565b90555b60028401905160208151916108968385611b34565b01915f5260205f20915f905b828210610a3e57505050509060059291516003830155516004820155019051151560ff80198354169116179055335f5260026020528460405f20556108e8600554611c50565b6005555f5b818110610952575050507fe7e42dac0290a716c2da17eae7263198d673aa03e9b5c00dc429f9d9f9819eb96020948492610943604051928261092f859461190b565b835260408984015233966040840191611c1c565b0390a360015f55604051908152f35b8060206109626001938587611bc5565b919082604051938492833781016004815203019020875f5260205260ff60405f20541615610991575b016108ed565b6109bc8760206109a2848789611bc5565b919082604051938492833781016003815203019020611be0565b60206109c9828587611bc5565b919082604051938492833781016004815203019020875f5260205260405f208260ff19825416179055867f6f80033091ade88a6aadd795353010f2ed3948866d4895d213607c2006eeb11f610a1f838688611bc5565b610a36604051928392602084526020840191611c1c565b0390a261098b565b80518051906001600160401b038211610b1e57610a6582610a5f88546117f6565b88611abf565b602090601f8311600114610ab55792610a9b836001959460209487965f92610aaa5750508160011b915f199060031b1c19161790565b87555b019401910190926108a2565b015190505f8061086a565b90601f19831691875f52815f20925f5b818110610b065750936020936001969387969383889510610aee575b505050811b018755610a9e565b01515f1960f88460031b161c191690555f8080610ae1565b92936020600181928786015181550195019301610ac5565b634e487b7160e01b5f52604160045260245ffd5b015190508f8061086a565b90601f19831691845f52815f20925f5b818110610b885750908460019594939210610b70575b505050811b019055610881565b01515f1960f88460031b161c191690558e8080610b63565b92936020600181928786015181550195019301610b4d565b82356001600160401b038111610178578a0136601f8201121561017857602091610bd1839236908481359101611ca4565b81520192019161078d565b6346b9713360e11b5f5260045ffd5b630d82532d60e21b5f5260045ffd5b63a15a6d1760e01b5f5260045ffd5b63e1cb13db60e01b5f5260045ffd5b62976f7560e21b5f5260045ffd5b34610178575f366003190112610178576006546040516001600160a01b039091168152602090f35b34610178576020366003190112610178576004356001600160401b03811161017857610c806020913690600401611929565b919082604051938492833781016003815203019020604051808260208294549384815201905f5260205f20925f5b818110610dcd575050610cc39250038261184a565b5f5f5b8251811015610d4057610cd98184611c3c565b515f52600160205260ff600560405f2001541680610d13575b610cff575b600101610cc6565b90610d0b600191611c50565b919050610cf7565b50610d1e8184611c3c565b515f52600160205260ff60405f205460a81c16610d3a8161190b565b15610cf2565b50610d4a90611c72565b905f5f5b82518110156103d257610d618184611c3c565b515f52600160205260ff600560405f2001541680610da0575b610d87575b600101610d4e565b90610d986001916103b98486611c3c565b919050610d7f565b50610dab8184611c3c565b515f52600160205260ff60405f205460a81c16610dc78161190b565b15610d7a565b8454835260019485019486945060209093019201610cae565b3461017857602036600319011261017857600435610e02611cda565b5f818152600160205260409020546001600160a01b0316156105d3576007546001600160a01b031633141580610e8a575b61016a575f818152600160208190526040822060058101805460ff1916909217909155426004909101553391907fe0790325da0fd60f50be8748023fa65a543fd152c974a5e7a19bbe463fd9d70e9080a360015f55005b506006546001600160a01b0316331415610e33565b34610178576040366003190112610178576024356001600160a01b038116906004359082900361017857610ed1611cda565b5f818152600160205260409020546001600160a01b0316330361016a575f818152600160205260409020546001600160a01b0316156105d357811561015b57815f52600260205260405f2054610beb575f81815260016020908152604080832080546001600160a01b0316808552600290935281842084905580546001600160a01b031916861781558584529083208490554260049091015591907f0f12574260408fcedadd18210e2c08ae64a8dc4ad5624582f89fcedd59c41a559080a460015f55005b34610178576020366003190112610178576004356001600160401b03811161017857610fc86020913690600401611929565b9190826040519384928337810160038152030190206040519081602082549182815201915f5260205f20905f5b818110611018576103e08561100c8187038261184a565b60405191829182611986565b8254845260209093019260019283019201610ff5565b34610178576060366003190112610178576004356024356001600160401b03811161017857611061903690600401611929565b6044356001600160401b03811161017857611080903690600401611956565b919061108a611cda565b5f858152600160205260409020546001600160a01b0316330361016a575f858152600160205260409020546001600160a01b0316156105d3578115610c09578215610bfa575f858152600160205260408120946002860194915b8554811015611112578061110c896111076111016001958b611a80565b5061186b565b611cf8565b016110e4565b50858795600182016001600160401b038711610b1e5761113c8761113683546117f6565b83611abf565b5f87601f81116001146114355780611168925f9161142a575b508160011b915f199060031b1c19161790565b90559392935b6111788582611b34565b5f9081526020812090845b86821061133f575050506004429101555f5b83811061126857506111b39060405194604086526040860191611c1c565b918383036020850152808352602083019060208160051b85010193835f91601e1982360301905b84841061120e57897f7616e4c059098c8afb0063038a53eb80ca83e0457432d218552c09b32a6ef84c8a8a038ba260015f55005b90919293949596601f1982820301875287358381121561017857840190602082359201916001600160401b038111610178578036038313610178576112596020928392600195611c1c565b990197019594019291906111da565b80602061127a60019387879897611bc5565b919082604051938492833781016004815203019020875f5260205260ff60405f205416156112ac575b01929192611195565b6112bd8760206109a284888a611bc5565b60206112ca828688611bc5565b919082604051938492833781016004815203019020875f5260205260405f208260ff19825416179055867f6f80033091ade88a6aadd795353010f2ed3948866d4895d213607c2006eeb11f611320838789611bc5565b611337604051928392602084526020840191611c1c565b0390a26112a3565b61134b81879897611b02565b906001600160401b038211610b1e5761136e8261136887546117f6565b87611abf565b5f90601f83116001146113c057926113a3836001959460209487965f926113b55750508160011b915f199060031b1c19161790565b86555b01930191019091959495611183565b013590508f8061086a565b601f19831691865f5260205f20925f5b81811061141257509360209360019693879693838895106113f9575b505050811b0186556113a6565b01355f19600384901b60f8161c191690558e80806113ec565b919360206001819287870135815501950192016113d0565b90508601358b611155565b50601f19881690825f528860205f20925f5b818110611480575010611467575b5050600187811b01905593929361116e565b8501355f1960038a901b60f8161c191690558880611455565b8884013585556001909401936020938401938c935001611447565b34610178576040366003190112610178576004356024356003811015610178576114c3611cda565b5f828152600160205260409020546001600160a01b0316330361016a575f828152600160205260409020546001600160a01b0316156105d3576115058161190b565b600260ff82161161157c5760407fe6b8b7e46ebdbb1c3fe461ecc84f5750e5c1949322c259672ce2cc9ab597da1291835f526001602052815f209060ff825460a81c16916115538282611a5c565b6004429101558251916115658161190b565b82526115708161190b565b6020820152a260015f55005b6307a92f1960e51b5f5260045ffd5b34610178576020366003190112610178576004355f52600160205260405f20805460ff8160a01c169160ff8260a81c166115c76001830161186b565b9161161c60038201549360ff60056004850154940154169360405197889760018060a01b031688526115f88161190b565b60208801526116068161190b565b604087015260e0606087015260e08601906117d2565b92608085015260a0840152151560c08301520390f35b34610178575f366003190112610178576007546040516001600160a01b039091168152602090f35b34610178576020366003190112610178576004355f818152600160205260409020546001600160a01b0316156105d3575f5260016020526116a0600260405f2001611a07565b6040518091602082016020835281518091526040830190602060408260051b8601019301915f905b8282106116d757505050500390f35b919360019193955060206116f68192603f198a820301865288516117d2565b96019201920185949391926116c8565b34610178576020366003190112610178576004356001600160a01b03811690819003610178576006546001600160a01b0316330361016a57801561015b575f8080809347905af13d156117b3573d61175d816119d5565b9061176b604051928361184a565b81525f60203d92013e5b1561177c57005b60405162461bcd60e51b815260206004820152600f60248201526e151c985b9cd9995c8819985a5b1959608a1b6044820152606490fd5b611775565b34610178575f366003190112610178576020906008548152f35b805180835260209291819084018484015e5f828201840152601f01601f1916010190565b90600182811c92168015611824575b602083101461181057565b634e487b7160e01b5f52602260045260245ffd5b91607f1691611805565b61010081019081106001600160401b03821117610b1e57604052565b90601f801991011681019081106001600160401b03821117610b1e57604052565b9060405191825f82549261187e846117f6565b80845293600181169081156118e957506001146118a5575b506118a39250038361184a565b565b90505f9291925260205f20905f915b8183106118cd5750509060206118a3928201015f611896565b60209193508060019154838589010152019101909184926118b4565b9050602092506118a394915060ff191682840152151560051b8201015f611896565b6003111561191557565b634e487b7160e01b5f52602160045260245ffd5b9181601f84011215610178578235916001600160401b038311610178576020838186019501011161017857565b9181601f84011215610178578235916001600160401b038311610178576020808501948460051b01011161017857565b60206040818301928281528451809452019201905f5b8181106119a95750505090565b825184526020938401939092019160010161199c565b600435906001600160a01b038216820361017857565b6001600160401b038111610b1e57601f01601f191660200190565b6001600160401b038111610b1e5760051b60200190565b908154611a13816119f0565b92611a21604051948561184a565b81845260208401905f5260205f205f915b838310611a3f5750505050565b600160208192611a4e8561186b565b815201920192019190611a32565b90611a668161190b565b815460ff60a81b191660a89190911b60ff60a81b16179055565b8054821015611a95575f5260205f2001905f90565b634e487b7160e01b5f52603260045260245ffd5b818110611ab4575050565b5f8155600101611aa9565b9190601f8111611ace57505050565b6118a3925f5260205f20906020601f840160051c83019310611af8575b601f0160051c0190611aa9565b9091508190611aeb565b903590601e198136030182121561017857018035906001600160401b0382116101785760200191813603831361017857565b90600160401b8111610b1e57815491818155828210611b5257505050565b5f5260205f2091820191015b818110611b69575050565b80611b76600192546117f6565b80611b83575b5001611b5e565b601f81118314611b9857505f81555b5f611b7c565b611bb490825f5283601f60205f20920160051c82019101611aa9565b805f525f6020812081835555611b92565b90821015611a9557611bdc9160051b810190611b02565b9091565b805490600160401b821015610b1e5781611c02916001611c1894018155611a80565b819391549060031b91821b915f19901b19161790565b9055565b908060209392818452848401375f828201840152601f01601f1916010190565b8051821015611a955760209160051b010190565b5f198114611c5e5760010190565b634e487b7160e01b5f52601160045260245ffd5b90611c7c826119f0565b611c89604051918261184a565b8281528092611c9a601f19916119f0565b0190602036910137565b929192611cb0826119d5565b91611cbe604051938461184a565b829481845281830111610178578281602093845f960137010152565b60025f5414611ce95760025f55565b633ee5aeb560e01b5f5260045ffd5b90604051825190602081818601938085835e81016004815203019020825f5260205260ff60405f20541615611e445760405160208185518085835e81016003815203019020905f5b825480821015611e3c5784611d558386611a80565b90549060031b1c14611d6a5750600101611d40565b5f9592939495198101908111611c5e57611c02611d8a611d989287611a80565b90549060031b1c9286611a80565b90558254918215611e28577f43344f17d163bf3133ab9debd3b0c8e23ce13baa6f3e85320c3128844849dfc293611e23935f190190611dd78282611a80565b8154905f199060031b1b19169055556020604051809284518091835e81016004815203019020845f5260205260405f2060ff1981541690556040519182916020835260208301906117d2565b0390a2565b634e487b7160e01b5f52603160045260245ffd5b505050505050565b50505056fea2646970667358221220e3d35ef668f1f56301da3ffb63cace5e386a8d01478069076b20cfa990afaaa464736f6c634300081b0033","linkReferences":{}},"methodIdentifiers":{"agents(bytes32)":"2e20ee18","discoverByCapability(string)":"59b346e6","getActiveAgentsByCapability(string)":"ab2bd453","getAgent(bytes32)":"a6c2af01","getAgentByWallet(address)":"85f8dd8d","getAgentCapabilities(bytes32)":"1f41f83b","getVerifiedAgentsByCapability(string)":"881b07b7","hasCapability(bytes32,string)":"bec89f41","owner()":"8da5cb5b","registerAgent(uint8,string,string[])":"95144aea","registrationFee()":"14c44e09","totalAgents()":"c5053712","transferAgent(bytes32,address)":"7686bfb5","transferOwnership(address)":"f2fde38b","updateAgent(bytes32,string,string[])":"421b455e","updateAgentStatus(bytes32,uint8)":"30f324c8","updateRegistrationFee(uint256)":"af582c6b","updateVerifier(address)":"97fc007c","verifier()":"2b7ac3f3","verifyAgent(bytes32)":"7ccd07a5","walletToAgent(address)":"e16abb17","withdrawFees(address)":"164e68de"},"id":29}