{"abi":[{"type":"constructor","inputs":[],"stateMutability":"nonpayable"},{"type":"function","name":"MAX_RATING","inputs":[],"outputs":[{"name":"","type":"uint8","internalType":"uint8"}],"stateMutability":"view"},{"type":"function","name":"MIN_RATING","inputs":[],"outputs":[{"name":"","type":"uint8","internalType":"uint8"}],"stateMutability":"view"},{"type":"function","name":"authorizedEscrows","inputs":[{"name":"","type":"address","internalType":"address"}],"outputs":[{"name":"","type":"bool","internalType":"bool"}],"stateMutability":"view"},{"type":"function","name":"feedbackRecorded","inputs":[{"name":"","type":"address","internalType":"address"},{"name":"","type":"uint256","internalType":"uint256"}],"outputs":[{"name":"","type":"bool","internalType":"bool"}],"stateMutability":"view"},{"type":"function","name":"getAgentFeedbacks","inputs":[{"name":"agent","type":"address","internalType":"address"}],"outputs":[{"name":"feedbacks","type":"tuple[]","internalType":"struct ReputationRegistry.Feedback[]","components":[{"name":"from","type":"address","internalType":"address"},{"name":"to","type":"address","internalType":"address"},{"name":"gigId","type":"uint256","internalType":"uint256"},{"name":"escrowContract","type":"address","internalType":"address"},{"name":"paymentAmount","type":"uint256","internalType":"uint256"},{"name":"qualityRating","type":"uint8","internalType":"uint8"},{"name":"communicationRating","type":"uint8","internalType":"uint8"},{"name":"timelinessRating","type":"uint8","internalType":"uint8"},{"name":"comment","type":"string","internalType":"string"},{"name":"timestamp","type":"uint256","internalType":"uint256"},{"name":"isDisputed","type":"bool","internalType":"bool"}]}],"stateMutability":"view"},{"type":"function","name":"getCommunicationRating","inputs":[{"name":"agent","type":"address","internalType":"address"}],"outputs":[{"name":"rating","type":"uint256","internalType":"uint256"}],"stateMutability":"view"},{"type":"function","name":"getDisputeRate","inputs":[{"name":"agent","type":"address","internalType":"address"}],"outputs":[{"name":"rate","type":"uint256","internalType":"uint256"}],"stateMutability":"view"},{"type":"function","name":"getFeedbackCount","inputs":[{"name":"agent","type":"address","internalType":"address"}],"outputs":[{"name":"count","type":"uint256","internalType":"uint256"}],"stateMutability":"view"},{"type":"function","name":"getOverallRating","inputs":[{"name":"agent","type":"address","internalType":"address"}],"outputs":[{"name":"rating","type":"uint256","internalType":"uint256"}],"stateMutability":"view"},{"type":"function","name":"getQualityRating","inputs":[{"name":"agent","type":"address","internalType":"address"}],"outputs":[{"name":"rating","type":"uint256","internalType":"uint256"}],"stateMutability":"view"},{"type":"function","name":"getRecentFeedbacks","inputs":[{"name":"agent","type":"address","internalType":"address"},{"name":"count","type":"uint256","internalType":"uint256"}],"outputs":[{"name":"feedbacks","type":"tuple[]","internalType":"struct ReputationRegistry.Feedback[]","components":[{"name":"from","type":"address","internalType":"address"},{"name":"to","type":"address","internalType":"address"},{"name":"gigId","type":"uint256","internalType":"uint256"},{"name":"escrowContract","type":"address","internalType":"address"},{"name":"paymentAmount","type":"uint256","internalType":"uint256"},{"name":"qualityRating","type":"uint8","internalType":"uint8"},{"name":"communicationRating","type":"uint8","internalType":"uint8"},{"name":"timelinessRating","type":"uint8","internalType":"uint8"},{"name":"comment","type":"string","internalType":"string"},{"name":"timestamp","type":"uint256","internalType":"uint256"},{"name":"isDisputed","type":"bool","internalType":"bool"}]}],"stateMutability":"view"},{"type":"function","name":"getReputation","inputs":[{"name":"agent","type":"address","internalType":"address"}],"outputs":[{"name":"reputation","type":"tuple","internalType":"struct ReputationRegistry.ReputationScore","components":[{"name":"totalFeedbacks","type":"uint256","internalType":"uint256"},{"name":"totalValue","type":"uint256","internalType":"uint256"},{"name":"qualitySum","type":"uint256","internalType":"uint256"},{"name":"communicationSum","type":"uint256","internalType":"uint256"},{"name":"timelinessSum","type":"uint256","internalType":"uint256"},{"name":"disputeCount","type":"uint256","internalType":"uint256"},{"name":"completedGigs","type":"uint256","internalType":"uint256"}]}],"stateMutability":"view"},{"type":"function","name":"getSuccessRate","inputs":[{"name":"agent","type":"address","internalType":"address"}],"outputs":[{"name":"rate","type":"uint256","internalType":"uint256"}],"stateMutability":"view"},{"type":"function","name":"getTimelinessRating","inputs":[{"name":"agent","type":"address","internalType":"address"}],"outputs":[{"name":"rating","type":"uint256","internalType":"uint256"}],"stateMutability":"view"},{"type":"function","name":"getTrustScore","inputs":[{"name":"agent","type":"address","internalType":"address"}],"outputs":[{"name":"score","type":"uint256","internalType":"uint256"}],"stateMutability":"view"},{"type":"function","name":"meetsQualityThreshold","inputs":[{"name":"agent","type":"address","internalType":"address"},{"name":"minRating","type":"uint256","internalType":"uint256"},{"name":"minFeedbacks","type":"uint256","internalType":"uint256"}],"outputs":[{"name":"meetsThreshold","type":"bool","internalType":"bool"}],"stateMutability":"view"},{"type":"function","name":"owner","inputs":[],"outputs":[{"name":"","type":"address","internalType":"address"}],"stateMutability":"view"},{"type":"function","name":"recordFeedback","inputs":[{"name":"from","type":"address","internalType":"address"},{"name":"to","type":"address","internalType":"address"},{"name":"gigId","type":"uint256","internalType":"uint256"},{"name":"paymentAmount","type":"uint256","internalType":"uint256"},{"name":"qualityRating","type":"uint8","internalType":"uint8"},{"name":"communicationRating","type":"uint8","internalType":"uint8"},{"name":"timelinessRating","type":"uint8","internalType":"uint8"},{"name":"comment","type":"string","internalType":"string"},{"name":"isDisputed","type":"bool","internalType":"bool"}],"outputs":[],"stateMutability":"nonpayable"},{"type":"function","name":"reputations","inputs":[{"name":"","type":"address","internalType":"address"}],"outputs":[{"name":"totalFeedbacks","type":"uint256","internalType":"uint256"},{"name":"totalValue","type":"uint256","internalType":"uint256"},{"name":"qualitySum","type":"uint256","internalType":"uint256"},{"name":"communicationSum","type":"uint256","internalType":"uint256"},{"name":"timelinessSum","type":"uint256","internalType":"uint256"},{"name":"disputeCount","type":"uint256","internalType":"uint256"},{"name":"completedGigs","type":"uint256","internalType":"uint256"}],"stateMutability":"view"},{"type":"function","name":"setEscrowAuthorization","inputs":[{"name":"escrowContract","type":"address","internalType":"address"},{"name":"authorized","type":"bool","internalType":"bool"}],"outputs":[],"stateMutability":"nonpayable"},{"type":"function","name":"transferOwnership","inputs":[{"name":"newOwner","type":"address","internalType":"address"}],"outputs":[],"stateMutability":"nonpayable"},{"type":"event","name":"EscrowAuthorized","inputs":[{"name":"escrowContract","type":"address","indexed":true,"internalType":"address"},{"name":"authorized","type":"bool","indexed":false,"internalType":"bool"}],"anonymous":false},{"type":"event","name":"FeedbackRecorded","inputs":[{"name":"from","type":"address","indexed":true,"internalType":"address"},{"name":"to","type":"address","indexed":true,"internalType":"address"},{"name":"gigId","type":"uint256","indexed":true,"internalType":"uint256"},{"name":"escrowContract","type":"address","indexed":false,"internalType":"address"},{"name":"paymentAmount","type":"uint256","indexed":false,"internalType":"uint256"},{"name":"qualityRating","type":"uint8","indexed":false,"internalType":"uint8"},{"name":"communicationRating","type":"uint8","indexed":false,"internalType":"uint8"},{"name":"timelinessRating","type":"uint8","indexed":false,"internalType":"uint8"},{"name":"isDisputed","type":"bool","indexed":false,"internalType":"bool"}],"anonymous":false},{"type":"event","name":"OwnershipTransferred","inputs":[{"name":"oldOwner","type":"address","indexed":true,"internalType":"address"},{"name":"newOwner","type":"address","indexed":true,"internalType":"address"}],"anonymous":false},{"type":"error","name":"FeedbackAlreadyRecorded","inputs":[]},{"type":"error","name":"InvalidPaymentAmount","inputs":[]},{"type":"error","name":"InvalidRating","inputs":[]},{"type":"error","name":"ReentrancyGuardReentrantCall","inputs":[]},{"type":"error","name":"Unauthorized","inputs":[]},{"type":"error","name":"ZeroAddress","inputs":[]}],"bytecode":{"object":"0x60808060405234602b5760015f55600580546001600160a01b0319163317905561174790816100308239f35b5f80fdfe6080806040526004361015610012575f80fd5b5f3560e01c90816301ff73e714610c055750806306fa15a714610b8c5780631471c8be14610af55780631b0ceb8f14610ad257806328b3c0b814610aaf578063360fa1521461051357806337db15c01461048957806337f4f4f8146104545780633a49419f146104315780635e09eea11461040e5780636cbd0882146103eb5780637e296803146103a25780638da5cb5b1461037a57806394e113ea1461035f5780639c89a0e214610277578063a9e1a62214610254578063b4f65cd31461021c578063bb0e4ea214610201578063c0ecad4a146101c4578063cb510373146101995763f2fde38b14610103575f80fd5b346101955760203660031901126101955761011c610c39565b600554906001600160a01b0382169033829003610187576001600160a01b0316918215610178576001600160a01b03191682176005557f8be0079c531659141344cd1fd0a4f28419497f9722a3daafe3b4186f6b6457e05f80a3005b63d92e233d60e01b5f5260045ffd5b6282b42960e81b5f5260045ffd5b5f80fd5b346101955760203660031901126101955760206101bc6101b7610c39565b611689565b604051908152f35b34610195576020366003190112610195576001600160a01b036101e5610c39565b165f526004602052602060ff60405f2054166040519015158152f35b34610195575f36600319011261019557602060405160018152f35b346101955760403660031901126101955761025061024461023b610c39565b602435906114eb565b60405191829182610c4f565b0390f35b346101955760203660031901126101955760206101bc610272610c39565b611450565b3461019557602036600319011261019557610290610c39565b5f60c060405161029f81610d76565b8281528260208201528260408201528260608201528260808201528260a0820152015260018060a01b03165f52600160205260e060405f206040516102e381610d76565b815491828252600181015460208301908152600282015460408401908152600383015490606085019182526004840154926080860193845260c0600660058701549660a08901978852015496019586526040519687525160208701525160408601525160608501525160808401525160a08301525160c0820152f35b34610195575f36600319011261019557602060405160058152f35b34610195575f366003190112610195576005546040516001600160a01b039091168152602090f35b34610195576040366003190112610195576001600160a01b036103c3610c39565b165f52600360205260405f206024355f52602052602060ff60405f2054166040519015158152f35b346101955760203660031901126101955760206101bc610409610c39565b6113c9565b346101955760203660031901126101955760206101bc61042c610c39565b611274565b346101955760203660031901126101955760206101bc61044f610c39565b6111e0565b3461019557606036600319011261019557602061047f610472610c39565b6044359060243590611113565b6040519015158152f35b34610195576020366003190112610195576001600160a01b036104aa610c39565b165f52600260205260405f2080546104c181610fc5565b916104cf6040519384610d92565b81835260208301905f5260205f205f915b8383106104f557604051806102508782610c4f565b6009602060019261050585610fdd565b8152019201920191906104e0565b34610195576101203660031901126101955761052d610c39565b6024356001600160a01b0381169081900361019557604435916064356084359160ff83168093036101955760a43560ff81168091036101955760c4359060ff82168092036101955760e4359467ffffffffffffffff8611610195573660238701121561019557856004013567ffffffffffffffff8111610195573660248289010111610195576101043590811515958683036101955760025f5414610aa05760025f55335f52600460205260ff60405f20541615610187576001600160a01b03169788158015610a98575b610178578715610a8957335f52600360205260405f208b5f5260205260ff60405f205416610a7a57600184108015610a70575b8015610a66575b8015610a5c575b8015610a52575b8015610a48575b610a39578987918a9387898f8d90604051986106628a610d59565b8952602089019087825260408a0190815260608a019133835260808b0193845260a08b01968d885260c08c0196875260e08c019586528060405199601f19601f8301166020016106b2908c610d92565b818b5260240160208b013788016020015f90526101008b019788526101208b0198428a526101408c019a8b525f52600260205260405f20805468010000000000000000811015610a125761070b91600182018155610f52565b9b909b610a2657518b546001600160a01b03199081166001600160a01b03928316178d55915160018d0180548416918316919091179055915160028c0155915160038b018054909316911617905551600488015591516005870180549251935162ffffff1990931660ff929092169190911760089390931b61ff00169290921760109190911b62ff000016179055518051600685019167ffffffffffffffff8211610a12576107ba8354610f7f565b601f81116109cd575b50602090601f831160011461093657937f2b56128a8bf7c61fea2602dbc86c9e31a68b9c4f8c721331b6ad2c229f078c129c9a9896938360089460c09e9c9a989461083f985f9261092b575b50508160011b915f199060031b1c19161790555b51600784015551151591019060ff801983541691151516179055565b335f52600360205260405f208b5f5260205260405f20600160ff19825416179055895f52600160205260405f20906108778254610fb7565b825560018201610888888254610e89565b90556108948784610db4565b6108a360028401918254610e89565b90556108af8785610db4565b6108be60038401918254610e89565b90556108ca8786610db4565b6108d960048401918254610e89565b905515610917576005016108ed8154610fb7565b90555b60405194338652602086015260408501526060840152608083015260a0820152a460015f55005b6006016109248154610fb7565b90556108f0565b015190505f8061080f565b90601f19831691845f52815f20925f5b8181106109b55750847f2b56128a8bf7c61fea2602dbc86c9e31a68b9c4f8c721331b6ad2c229f078c129f9d9b9996929460c09f9d9b99959461083f99956008986001951061099d575b505050811b019055610823565b01515f1960f88460031b161c191690555f8080610990565b92936020600181928786015181550195019301610946565b835f5260205f20601f840160051c81019160208510610a08575b601f0160051c01905b8181106109fd57506107c3565b5f81556001016109f0565b90915081906109e7565b634e487b7160e01b5f52604160045260245ffd5b634e487b7160e01b5f525f60045260245ffd5b63d29df2dd60e01b5f5260045ffd5b5060058611610647565b5060018610610640565b5060058511610639565b5060018510610632565b506005841161062b565b633d27f7c160e01b5f5260045ffd5b637e2897ef60e11b5f5260045ffd5b5089156105f8565b633ee5aeb560e01b5f5260045ffd5b346101955760203660031901126101955760206101bc610acd610c39565b610e96565b346101955760203660031901126101955760206101bc610af0610c39565b610df9565b3461019557604036600319011261019557610b0e610c39565b6024359081151590818303610195576005546001600160a01b03163303610187576001600160a01b0316918215610178577fd050846fbbc71ea3fa1c3cde22c675780769aaa30c5152a411e2e1086ce931f891610b83602092855f526004845260405f209060ff801983541691151516179055565b604051908152a2005b34610195576020366003190112610195576001600160a01b03610bad610c39565b165f52600160205260e060405f20805490600181015490600281015460038201546004830154916006600585015494015494604051968752602087015260408601526060850152608084015260a083015260c0820152f35b34610195576020366003190112610195576020906001600160a01b03610c29610c39565b165f526002825260405f20548152f35b600435906001600160a01b038216820361019557565b602081016020825282518091526040820191602060408360051b8301019401925f915b838310610c8157505050505090565b9091929394602080610180600193603f19868203018752826101408b51878060a01b038151168452878060a01b0383820151168385015260408101516040850152878060a01b0360608201511660608501526080810151608085015260ff60a08201511660a085015260ff60c08201511660c085015260ff60e08201511660e0850152610100810151610160610100860152805193849182610160880152018686015e5f85848601015261012081015161012085015201511515610140830152601f8019910116010197019301930191939290610c72565b610160810190811067ffffffffffffffff821117610a1257604052565b60e0810190811067ffffffffffffffff821117610a1257604052565b90601f8019910116810190811067ffffffffffffffff821117610a1257604052565b81810292918115918404141715610dc757565b634e487b7160e01b5f52601160045260245ffd5b8115610de5570490565b634e487b7160e01b5f52601260045260245ffd5b60018060a01b03165f52600160205260405f2060405190610e1982610d76565b805482526001810154602083019281845260c060066002850154948560408501526003810154606085015260048101546080850152600581015460a0850152015491015215610e8357606481029080820460641490151715610dc757610e80915190610ddb565b90565b50505f90565b91908201809211610dc757565b60018060a01b03165f52600160205260405f20604051610eb581610d76565b81548152600182015491602082019280845260028201549081604085015260038301549384606082015260c0600660048601549560808401968752600581015460a0850152015491015215610f4a57610f1992610f1191610e89565b905190610e89565b90606482029180830460641490151715610dc75751600381029080820460031490151715610dc757610e8091610ddb565b505050505f90565b8054821015610f6b575f52600960205f20910201905f90565b634e487b7160e01b5f52603260045260245ffd5b90600182811c92168015610fad575b6020831014610f9957565b634e487b7160e01b5f52602260045260245ffd5b91607f1691610f8e565b5f198114610dc75760010190565b67ffffffffffffffff8111610a125760051b60200190565b90604051610fea81610d59565b809260018060a01b03815416825260018060a01b0360018201541660208301526002810154604083015260018060a01b0360038201541660608301526004810154608083015260ff600582015481811660a0850152818160081c1660c085015260101c1660e083015260068101604051905f9080549061106982610f7f565b80855291600181169081156110ee57506001146110b3575b5050610140928261109860ff946008940382610d92565b61010086015260078101546101208601520154161515910152565b5f908152602081209092505b8183106110d457505081016020018282611081565b6001816020929493945483858801015201910191906110bf565b60ff191660208087019190915292151560051b85019092019250849150839050611081565b91909160018060a01b03165f52600160205260405f206040519061113682610d76565b80548083526001820154602084019481865260028401549283604087015260038501549586606082015260c0600660048801549760808401988952600581015460a08501520154910152106111d657156111cd5761119792610f1191610e89565b90606482029180830460641490151715610dc75751600381029080820460031490151715610dc7576111c891610ddb565b101590565b50505050505f90565b5050505050505f90565b60018060a01b03165f52600160205260405f206040519061120082610d76565b80548083526001820154602084015260028201546040840152600382015460608401526004820154608084015260066005830154928360a0860152015460c084015215610e83576127108102908082046127101490151715610dc757610e80915190610ddb565b91908203918211610dc757565b60018060a01b03165f52600160205260405f206040519061129482610d76565b805491828152600182015460208201908152600283015480604084015260038401549081606085015260048501549060808501918252600660058701549660a0870197885201549660c08601978852156113be576112f592610f1191610e89565b90606482029180830460641490151715610dc75751600381029080820460031490151715610dc75761132691610ddb565b92516127108102908082046127101490151715610dc757815161134891610ddb565b91516127108102908082046127101490151715610dc75761136a915190610ddb565b60011c91601481029080820460141490151715610dc7576127109161138e91610db4565b0490808211156113b5576113a191611267565b905b61271082116113ae57565b6127109150565b50505f906113a3565b505050505050505f90565b60018060a01b03165f52600160205260405f20604051906113e982610d76565b8054825260018101546020830192818452600283015460408201526003830154606082015260c06006600485015494856080850152600581015460a0850152015491015215610e8357606481029080820460641490151715610dc757610e80915190610ddb565b60018060a01b03165f52600160205260405f206040519061147082610d76565b80548252600181015460208301928184526002830154604082015260c0600660038501549485606085015260048101546080850152600581015460a0850152015491015215610e8357606481029080820460641490151715610dc757610e80915190610ddb565b8051821015610f6b5760209160051b010190565b6001600160a01b03165f908152600260205260409020805490929160608215611606575081811115611600575080925b61152484610fc5565b906115326040519283610d92565b848252601f1961154186610fc5565b015f5b8181106115a357505081945f5b81811061155f575050505050565b8061158761158161157b600194611576878b611267565b610e89565b86610f52565b50610fdd565b61159182876114d7565b5261159c81866114d7565b5001611551565b6020906040516115b281610d59565b5f81525f838201525f60408201525f60608201525f60808201525f60a08201525f60c08201525f60e082015260606101008201525f6101208201525f61014082015282828701015201611544565b9261151b565b92935050506040519061161a602083610d92565b5f82525f90815b82811061162e5750505090565b60209060405161163d81610d59565b5f81525f838201525f60408201525f848201525f60808201525f60a08201525f60c08201525f60e0820152836101008201525f6101208201525f61014082015282828701015201611621565b60018060a01b03165f52600160205260405f20604051906116a982610d76565b600681549182845260018101546020850152600281015460408501526003810154606085015260048101546080850152600581015460a08501520154908160c084015215610e83576127108102908082046127101490151715610dc757610e80915190610ddb56fea26469706673582212201d6bf72f232e0b77c0731150a9de87352c843a38be01ec629ec4ba5096d2325c64736f6c634300081b0033","linkReferences":{}},"methodIdentifiers":{"MAX_RATING()":"94e113ea","MIN_RATING()":"bb0e4ea2","authorizedEscrows(address)":"c0ecad4a","feedbackRecorded(address,uint256)":"7e296803","getAgentFeedbacks(address)":"37db15c0","getCommunicationRating(address)":"a9e1a622","getDisputeRate(address)":"3a49419f","getFeedbackCount(address)":"01ff73e7","getOverallRating(address)":"28b3c0b8","getQualityRating(address)":"1b0ceb8f","getRecentFeedbacks(address,uint256)":"b4f65cd3","getReputation(address)":"9c89a0e2","getSuccessRate(address)":"cb510373","getTimelinessRating(address)":"6cbd0882","getTrustScore(address)":"5e09eea1","meetsQualityThreshold(address,uint256,uint256)":"37f4f4f8","owner()":"8da5cb5b","recordFeedback(address,address,uint256,uint256,uint8,uint8,uint8,string,bool)":"360fa152","reputations(address)":"06fa15a7","setEscrowAuthorization(address,bool)":"1471c8be","transferOwnership(address)":"f2fde38b"},"id":31}