{"abi":[{"type":"constructor","inputs":[{"name":"arbitrator1","type":"address","internalType":"address"},{"name":"arbitrator2","type":"address","internalType":"address"},{"name":"arbitrator3","type":"address","internalType":"address"}],"stateMutability":"nonpayable"},{"type":"function","name":"QUORUM","inputs":[],"outputs":[{"name":"","type":"uint256","internalType":"uint256"}],"stateMutability":"view"},{"type":"function","name":"VOTING_PERIOD","inputs":[],"outputs":[{"name":"","type":"uint256","internalType":"uint256"}],"stateMutability":"view"},{"type":"function","name":"addArbitrator","inputs":[{"name":"arbitrator","type":"address","internalType":"address"}],"outputs":[],"stateMutability":"nonpayable"},{"type":"function","name":"appealDispute","inputs":[{"name":"caseId","type":"bytes32","internalType":"bytes32"},{"name":"appealReason","type":"string","internalType":"string"},{"name":"newEvidenceURI","type":"string","internalType":"string"}],"outputs":[],"stateMutability":"nonpayable"},{"type":"function","name":"arbitrators","inputs":[{"name":"","type":"address","internalType":"address"}],"outputs":[{"name":"","type":"bool","internalType":"bool"}],"stateMutability":"view"},{"type":"function","name":"createDispute","inputs":[{"name":"bountyId","type":"uint256","internalType":"uint256"},{"name":"client","type":"address","internalType":"address"},{"name":"worker","type":"address","internalType":"address"},{"name":"amount","type":"uint256","internalType":"uint256"},{"name":"reason","type":"string","internalType":"string"},{"name":"clientEvidenceURI","type":"string","internalType":"string"}],"outputs":[{"name":"caseId","type":"bytes32","internalType":"bytes32"}],"stateMutability":"nonpayable"},{"type":"function","name":"disputes","inputs":[{"name":"","type":"bytes32","internalType":"bytes32"}],"outputs":[{"name":"bountyId","type":"uint256","internalType":"uint256"},{"name":"escrowContract","type":"address","internalType":"address"},{"name":"client","type":"address","internalType":"address"},{"name":"worker","type":"address","internalType":"address"},{"name":"amount","type":"uint256","internalType":"uint256"},{"name":"reason","type":"string","internalType":"string"},{"name":"createdAt","type":"uint256","internalType":"uint256"},{"name":"votingDeadline","type":"uint256","internalType":"uint256"},{"name":"status","type":"uint8","internalType":"enum SimpleArbitrator.DisputeStatus"},{"name":"appealed","type":"bool","internalType":"bool"},{"name":"finalClientBps","type":"uint256","internalType":"uint256"}],"stateMutability":"view"},{"type":"function","name":"finalizeIfExpired","inputs":[{"name":"caseId","type":"bytes32","internalType":"bytes32"}],"outputs":[],"stateMutability":"nonpayable"},{"type":"function","name":"getDispute","inputs":[{"name":"caseId","type":"bytes32","internalType":"bytes32"}],"outputs":[{"name":"bountyId","type":"uint256","internalType":"uint256"},{"name":"escrowContract","type":"address","internalType":"address"},{"name":"client","type":"address","internalType":"address"},{"name":"worker","type":"address","internalType":"address"},{"name":"amount","type":"uint256","internalType":"uint256"},{"name":"reason","type":"string","internalType":"string"},{"name":"createdAt","type":"uint256","internalType":"uint256"},{"name":"votingDeadline","type":"uint256","internalType":"uint256"},{"name":"status","type":"uint8","internalType":"enum SimpleArbitrator.DisputeStatus"},{"name":"appealed","type":"bool","internalType":"bool"},{"name":"finalClientBps","type":"uint256","internalType":"uint256"}],"stateMutability":"view"},{"type":"function","name":"getEvidences","inputs":[{"name":"caseId","type":"bytes32","internalType":"bytes32"}],"outputs":[{"name":"","type":"tuple[]","internalType":"struct SimpleArbitrator.Evidence[]","components":[{"name":"submitter","type":"address","internalType":"address"},{"name":"ipfsURI","type":"string","internalType":"string"},{"name":"timestamp","type":"uint256","internalType":"uint256"}]}],"stateMutability":"view"},{"type":"function","name":"getResolution","inputs":[{"name":"caseId","type":"bytes32","internalType":"bytes32"}],"outputs":[{"name":"clientBps","type":"uint256","internalType":"uint256"},{"name":"workerBps","type":"uint256","internalType":"uint256"}],"stateMutability":"view"},{"type":"function","name":"getVotes","inputs":[{"name":"caseId","type":"bytes32","internalType":"bytes32"}],"outputs":[{"name":"","type":"tuple[]","internalType":"struct SimpleArbitrator.Vote[]","components":[{"name":"arbitrator","type":"address","internalType":"address"},{"name":"clientBps","type":"uint256","internalType":"uint256"},{"name":"timestamp","type":"uint256","internalType":"uint256"}]}],"stateMutability":"view"},{"type":"function","name":"hasVoted","inputs":[{"name":"","type":"bytes32","internalType":"bytes32"},{"name":"","type":"address","internalType":"address"}],"outputs":[{"name":"","type":"bool","internalType":"bool"}],"stateMutability":"view"},{"type":"function","name":"owner","inputs":[],"outputs":[{"name":"","type":"address","internalType":"address"}],"stateMutability":"view"},{"type":"function","name":"removeArbitrator","inputs":[{"name":"arbitrator","type":"address","internalType":"address"}],"outputs":[],"stateMutability":"nonpayable"},{"type":"function","name":"submitEvidence","inputs":[{"name":"caseId","type":"bytes32","internalType":"bytes32"},{"name":"evidenceURI","type":"string","internalType":"string"}],"outputs":[],"stateMutability":"nonpayable"},{"type":"function","name":"vote","inputs":[{"name":"caseId","type":"bytes32","internalType":"bytes32"},{"name":"clientBps","type":"uint256","internalType":"uint256"}],"outputs":[],"stateMutability":"nonpayable"},{"type":"event","name":"ArbitratorAdded","inputs":[{"name":"arbitrator","type":"address","indexed":true,"internalType":"address"}],"anonymous":false},{"type":"event","name":"ArbitratorRemoved","inputs":[{"name":"arbitrator","type":"address","indexed":true,"internalType":"address"}],"anonymous":false},{"type":"event","name":"DisputeAppealed","inputs":[{"name":"caseId","type":"bytes32","indexed":true,"internalType":"bytes32"},{"name":"appellant","type":"address","indexed":true,"internalType":"address"},{"name":"reason","type":"string","indexed":false,"internalType":"string"}],"anonymous":false},{"type":"event","name":"DisputeCreated","inputs":[{"name":"caseId","type":"bytes32","indexed":true,"internalType":"bytes32"},{"name":"bountyId","type":"uint256","indexed":true,"internalType":"uint256"},{"name":"client","type":"address","indexed":false,"internalType":"address"},{"name":"worker","type":"address","indexed":false,"internalType":"address"},{"name":"amount","type":"uint256","indexed":false,"internalType":"uint256"}],"anonymous":false},{"type":"event","name":"DisputeResolved","inputs":[{"name":"caseId","type":"bytes32","indexed":true,"internalType":"bytes32"},{"name":"clientBps","type":"uint256","indexed":false,"internalType":"uint256"},{"name":"workerBps","type":"uint256","indexed":false,"internalType":"uint256"}],"anonymous":false},{"type":"event","name":"EvidenceSubmitted","inputs":[{"name":"caseId","type":"bytes32","indexed":true,"internalType":"bytes32"},{"name":"submitter","type":"address","indexed":true,"internalType":"address"},{"name":"ipfsURI","type":"string","indexed":false,"internalType":"string"}],"anonymous":false},{"type":"event","name":"VoteCast","inputs":[{"name":"caseId","type":"bytes32","indexed":true,"internalType":"bytes32"},{"name":"arbitrator","type":"address","indexed":true,"internalType":"address"},{"name":"clientBps","type":"uint256","indexed":false,"internalType":"uint256"}],"anonymous":false},{"type":"error","name":"AlreadyAppealed","inputs":[]},{"type":"error","name":"AlreadyVoted","inputs":[]},{"type":"error","name":"InvalidBasisPoints","inputs":[]},{"type":"error","name":"InvalidStatus","inputs":[]},{"type":"error","name":"NoQuorum","inputs":[]},{"type":"error","name":"NotParty","inputs":[]},{"type":"error","name":"NotResolved","inputs":[]},{"type":"error","name":"ReentrancyGuardReentrantCall","inputs":[]},{"type":"error","name":"Unauthorized","inputs":[]},{"type":"error","name":"VotingEnded","inputs":[]},{"type":"error","name":"VotingNotEnded","inputs":[]}],"bytecode":{"object":"0x60803461010d57601f61151538819003918201601f19168301916001600160401b038311848410176101125780849260609460405283398101031261010d5761004781610128565b61005f604061005860208501610128565b9301610128565b60016000818155600480546001600160a01b031916331790556001600160a01b0393841680825260026020526040808320805460ff19908116861790915596861680845281842080548916861790559590941680835284832080549097169093179095559151939092916000805160206114f58339815191529080a26000805160206114f5833981519152600080a26000805160206114f5833981519152600080a26113b8908161013d8239f35b600080fd5b634e487b7160e01b600052604160045260246000fd5b51906001600160a01b038216820361010d5756fe6080604052600436101561001257600080fd5b60003560e01c806301fabd7514610dfb57806303e8d65214610d7e57806311be199714610cf3578063136ba6aa14610c5f5780632e80d9b614610c435780634c05110014610b445780634fe39aa914610aca57806351d0ea3714610a8b57806356524753146107fc5780638da5cb5b146107d3578063973ad270146107635780639ef1204c1461058c578063a932bdcd14610462578063aadc3b7214610415578063b1610d7e146103f7578063c0d25e561461020a5763f48a0b31146100d757600080fd5b346102055760403660031901126102055760043560243567ffffffffffffffff81116102055761010b90369060040161106c565b826000939293526001602052604060002060ff60088201541660038110156101ef576101de5760028101546001600160a01b0316331415806101c7575b6101b6577f1e6474820c020bb520fb11114c39535d390708f81e19f7661698a4686193447a916101a36101b19260096040519161018483610ed4565b33835261019236868b611104565b60208401524260408401520161117d565b6040519182913396836112a0565b0390a3005b63c8ee2d1d60e01b60005260046000fd5b5060038101546001600160a01b0316331415610148565b6307a92f1960e51b60005260046000fd5b634e487b7160e01b600052602160045260246000fd5b600080fd5b346102055760603660031901126102055760043560243567ffffffffffffffff81116102055761023e90369060040161106c565b60449291923567ffffffffffffffff81116102055761026190369060040161106c565b8360009592955260016020526040600020916008830160ff81541660038110156101ef576001036103e657600b8401805460ff81166103d55760028601546001600160a01b0316331415806103be575b6101b65760ff199081166001179091558154169055600a83018054600082559081610380575b505062093a8042019384421161036a577ff54ec87bab3a51d7392a0c85d0b5d06504b2af2802ed4dcdc2e701fa6c49b79461035987926101a38a6009897f1e6474820c020bb520fb11114c39535d390708f81e19f7661698a4686193447a9b60076101b19c01556101926040519361034e85610ed4565b3385528b3691611104565b0390a36040519182913396836112a0565b634e487b7160e01b600052601160045260246000fd5b8160030291600383040361036a576000526020600020908101905b818110156102d7578060006003925560006001820155600060028201550161039b565b5060038601546001600160a01b03163314156102b1565b634dcfa42d60e01b60005260046000fd5b639f4a648960e01b60005260046000fd5b3461020557600036600319011261020557602060405162093a808152f35b346102055760403660031901126102055761042e610e84565b600435600052600360205260406000209060018060a01b0316600052602052602060ff604060002054166040519015158152f35b3461020557602036600319011261020557600435600052600160205260096040600020018054906104928261109a565b916104a06040519384610ef0565b80835260208301809260005260206000206000915b83831061054757848660405191829160208301906020845251809152604083019060408160051b85010192916000905b8282106104f457505050500390f35b919360019193955060208091603f19898203018552875190848060a01b038251168152604080610531858501516060878601526060850190610fb6565b93015191015296019201920185949391926104e5565b6003602060019260405161055a81610ed4565b848060a01b038654168152610570858701610f12565b83820152600286015460408201528152019201920191906104b5565b346102055760403660031901126102055760043560243533600052600260205260ff604060002054161561075357816000526001602052604060002060ff60088201541660038110156101ef576101de576007810154421161074257600083815260036020908152604080832033845290915290205460ff1661073157612710821161072057600a016040519161062283610ed4565b338352602083019281845260408101904282528354600160401b81101561070a57806001610653920186558561114b565b9290926106f457905182546001600160a01b0319166001600160a01b03919091161782559351600182810191909155935160029182015560008581526003602090815260408083203380855290835292819020805460ff191690971790965594519283529093909185917f48e3e7ad72c5c299aa017da150bd3f007c35bf5ddd9eb9fb492f3e2c4bec332791a35410156106e957005b6106f2906112c8565b005b634e487b7160e01b600052600060045260246000fd5b634e487b7160e01b600052604160045260246000fd5b63800c7e9160e01b60005260046000fd5b637c9a1cf960e01b60005260046000fd5b637a19ed0560e01b60005260046000fd5b6282b42960e81b60005260046000fd5b346102055760203660031901126102055761077c610e6e565b6004546001600160a01b03163303610753576001600160a01b03166000818152600260205260408120805460ff191690557f715484adb5bc9cc29af577725dbf8486d0b82eca3ba79f65846e92ff38ef32b59080a2005b34610205576000366003190112610205576004546040516001600160a01b039091168152602090f35b346102055760c036600319011261020557600435610818610e84565b906044356001600160a01b03811690819003610205576064359260843567ffffffffffffffff81116102055761085290369060040161106c565b92909360a43567ffffffffffffffff81116102055761087590369060040161106c565b9160405160208101908282523360601b60408201524260548201526054815261089f607482610ef0565b519020600081815260016020819052604090912083815590810180546001600160a01b0319908116331790915560028201805482166001600160a01b038a1617905560038201805490911687179055600481018a905590979096600588019167ffffffffffffffff821161070a576109218261091b8554610e9a565b856110b2565b600090601f8311600114610a2757610952929160009183610a1c575b50508160011b916000199060031b1c19161790565b90555b42600687015562093a8042019788421161036a577f6e205d6cc5b8cf1f9285c5a3f4c7466d9d788fc402144896860197115138767b60607f1e6474820c020bb520fb11114c39535d390708f81e19f7661698a4686193447a968a98936109f18a9560209e60078e015560088d0160ff1981541690556009604051916109d983610ed4565b6001600160a01b03168083529d610192368d8d611104565b604051918b83528d8301526040820152a3610a11604051928392836112a0565b0390a3604051908152f35b013590508c8061093d565b8382526020822091601f198416815b818110610a735750908460019594939210610a59575b505050811b019055610955565b0135600019600384901b60f8161c191690558b8080610a4c565b91936020600181928787013581550195019201610a36565b34610205576020366003190112610205576001600160a01b03610aac610e6e565b166000526002602052602060ff604060002054166040519015158152f35b3461020557602036600319011261020557600435806000526001602052604060002060ff60088201541660038110156101ef576101de576007810154421115610b3357600a600291015410610b22576106f2906112c8565b632166ec3560e01b60005260046000fd5b633fc30bd160e11b60005260046000fd5b34610205576020366003190112610205576004356000526001602052600a604060002001805490610b748261109a565b91610b826040519384610ef0565b80835260208301809260005260206000206000915b838310610c055784866040519182916020830190602084525180915260408301919060005b818110610bca575050500390f35b825180516001600160a01b03168552602081810151818701526040918201519186019190915286955060609094019390920191600101610bbc565b60036020600192604051610c1881610ed4565b848060a01b038654168152848601548382015260028601546040820152815201920192019190610b97565b3461020557600036600319011261020557602060405160028152f35b3461020557602036600319011261020557600435600052600160205260406000208054610cef60018060a01b036001840154169260018060a01b0360028201541660018060a01b0360038301541690600483015490600684015460078501549160ff6008870154169360ff600b8801541695610ce26005600c8a01549901610f12565b926040519b8c9b8c610ff7565b0390f35b346102055760203660031901126102055760048035600090815260016020819052604090912080549181015460028201546003830154948301546001600160a01b0392831695610cef94928416931690610d4f60058401610f12565b60068401549060078501549260ff60088701541694600c60ff600b89015416970154976040519b8c9b8c610ff7565b3461020557602036600319011261020557600435600081815260016020819052604090912001546001600160a01b03163303610753576000526001602052604060002060ff60088201541660038110156101ef576001036103e657600c0154806127100390612710821161036a5760409182519182526020820152f35b3461020557602036600319011261020557610e14610e6e565b6004546001600160a01b03163303610753576001600160a01b03166000818152600260205260408120805460ff191660011790557ffc4dfef69004b5e3aba1eb4a8b1e53b893418fda232d9f60574a6c62f30c449d9080a2005b600435906001600160a01b038216820361020557565b602435906001600160a01b038216820361020557565b90600182811c92168015610eca575b6020831014610eb457565b634e487b7160e01b600052602260045260246000fd5b91607f1691610ea9565b6060810190811067ffffffffffffffff82111761070a57604052565b90601f8019910116810190811067ffffffffffffffff82111761070a57604052565b9060405191826000825492610f2684610e9a565b8084529360018116908115610f945750600114610f4d575b50610f4b92500383610ef0565b565b90506000929192526020600020906000915b818310610f78575050906020610f4b9282010138610f3e565b6020919350806001915483858901015201910190918492610f5f565b905060209250610f4b94915060ff191682840152151560051b82010138610f3e565b919082519283825260005b848110610fe2575050826000602080949584010152601f8019910116010190565b80602080928401015182828601015201610fc1565b9081526001600160a01b03918216602082015291811660408301529091166060820152608081019190915261016060a082018190529297969590939092909161104291850190610fb6565b9660c084015260e083015260038310156101ef576101409261010083015215156101208201520152565b9181601f840112156102055782359167ffffffffffffffff8311610205576020838186019501011161020557565b67ffffffffffffffff811161070a5760051b60200190565b601f82116110bf57505050565b6000526020600020906020601f840160051c830193106110fa575b601f0160051c01905b8181106110ee575050565b600081556001016110e3565b90915081906110da565b92919267ffffffffffffffff821161070a576040519161112e601f8201601f191660200184610ef0565b829481845281830111610205578281602093846000960137010152565b8054821015611167576000526003602060002091020190600090565b634e487b7160e01b600052603260045260246000fd5b8054600160401b81101561070a5761119a9160018201815561114b565b9190916106f457805182546001600160a01b0319166001600160a01b039190911617825560208101518051600184019167ffffffffffffffff821161070a576111e78261091b8554610e9a565b602090601f83116001146112335782600295936040959361121e936000926112285750508160011b916000199060031b1c19161790565b90555b0151910155565b01519050388061093d565b90601f1983169184600052816000209260005b818110611288575092600192859260029896604098961061126f575b505050811b019055611221565b015160001960f88460031b161c19169055388080611262565b92936020600181928786015181550195019301611246565b90918060409360208452816020850152848401376000828201840152601f01601f1916010190565b8060005260016020526040600020600080600a8301908154915b82821061135e575050801561134857600891049182600c82015501600160ff198254161790558061271003612710811161036a577f58a2558343c2558557b34020fdd42da40f54056195b7744918f27e2e19adcc129160409182519182526020820152a2565b634e487b7160e01b600052601260045260246000fd5b9092600161136c858461114b565b500154810180911161036a5792600101906112e256fea2646970667358221220f4e1b96014cc5587462effb33d37326e8e8fde7b74869b4302d15308ca7ae17764736f6c634300081b0033fc4dfef69004b5e3aba1eb4a8b1e53b893418fda232d9f60574a6c62f30c449d","linkReferences":{}},"methodIdentifiers":{"QUORUM()":"2e80d9b6","VOTING_PERIOD()":"b1610d7e","addArbitrator(address)":"01fabd75","appealDispute(bytes32,string,string)":"c0d25e56","arbitrators(address)":"51d0ea37","createDispute(uint256,address,address,uint256,string,string)":"56524753","disputes(bytes32)":"11be1997","finalizeIfExpired(bytes32)":"4fe39aa9","getDispute(bytes32)":"136ba6aa","getEvidences(bytes32)":"a932bdcd","getResolution(bytes32)":"03e8d652","getVotes(bytes32)":"4c051100","hasVoted(bytes32,address)":"aadc3b72","owner()":"8da5cb5b","removeArbitrator(address)":"973ad270","submitEvidence(bytes32,string)":"f48a0b31","vote(bytes32,uint256)":"9ef1204c"},"id":38}